{
  "_format": "hh-sol-artifact-1",
  "contractName": "ChefIncentivesController",
  "sourceName": "contracts/staking/ChefIncentivesController.sol",
  "abi": [
    {
      "inputs": [
        {
          "internalType": "uint128[]",
          "name": "_startTimeOffset",
          "type": "uint128[]"
        },
        {
          "internalType": "uint128[]",
          "name": "_rewardsPerSecond",
          "type": "uint128[]"
        },
        {
          "internalType": "address",
          "name": "_poolConfigurator",
          "type": "address"
        },
        {
          "internalType": "contract IMultiFeeDistribution",
          "name": "_rewardMinter",
          "type": "address"
        },
        {
          "internalType": "uint256",
          "name": "_maxMintable",
          "type": "uint256"
        },
        {
          "internalType": "uint256",
          "name": "_startTime",
          "type": "uint256"
        }
      ],
      "stateMutability": "nonpayable",
      "type": "constructor"
    },
    {
      "anonymous": false,
      "inputs": [
        {
          "indexed": true,
          "internalType": "address",
          "name": "token",
          "type": "address"
        },
        {
          "indexed": true,
          "internalType": "address",
          "name": "user",
          "type": "address"
        },
        {
          "indexed": false,
          "internalType": "uint256",
          "name": "balance",
          "type": "uint256"
        },
        {
          "indexed": false,
          "internalType": "uint256",
          "name": "totalSupply",
          "type": "uint256"
        }
      ],
      "name": "BalanceUpdated",
      "type": "event"
    },
    {
      "anonymous": false,
      "inputs": [
        {
          "indexed": true,
          "internalType": "address",
          "name": "previousOwner",
          "type": "address"
        },
        {
          "indexed": true,
          "internalType": "address",
          "name": "newOwner",
          "type": "address"
        }
      ],
      "name": "OwnershipTransferred",
      "type": "event"
    },
    {
      "inputs": [
        {
          "internalType": "address",
          "name": "_token",
          "type": "address"
        },
        {
          "internalType": "uint256",
          "name": "_allocPoint",
          "type": "uint256"
        }
      ],
      "name": "addPool",
      "outputs": [],
      "stateMutability": "nonpayable",
      "type": "function"
    },
    {
      "inputs": [
        {
          "internalType": "address[]",
          "name": "_tokens",
          "type": "address[]"
        },
        {
          "internalType": "uint256[]",
          "name": "_allocPoints",
          "type": "uint256[]"
        }
      ],
      "name": "batchUpdateAllocPoint",
      "outputs": [],
      "stateMutability": "nonpayable",
      "type": "function"
    },
    {
      "inputs": [
        {
          "internalType": "address",
          "name": "_user",
          "type": "address"
        },
        {
          "internalType": "address[]",
          "name": "_tokens",
          "type": "address[]"
        }
      ],
      "name": "claim",
      "outputs": [],
      "stateMutability": "nonpayable",
      "type": "function"
    },
    {
      "inputs": [
        {
          "internalType": "address",
          "name": "",
          "type": "address"
        }
      ],
      "name": "claimReceiver",
      "outputs": [
        {
          "internalType": "address",
          "name": "",
          "type": "address"
        }
      ],
      "stateMutability": "view",
      "type": "function"
    },
    {
      "inputs": [
        {
          "internalType": "address",
          "name": "_user",
          "type": "address"
        },
        {
          "internalType": "address[]",
          "name": "_tokens",
          "type": "address[]"
        }
      ],
      "name": "claimableReward",
      "outputs": [
        {
          "internalType": "uint256[]",
          "name": "",
          "type": "uint256[]"
        }
      ],
      "stateMutability": "view",
      "type": "function"
    },
    {
      "inputs": [
        {
          "internalType": "uint256",
          "name": "",
          "type": "uint256"
        }
      ],
      "name": "emissionSchedule",
      "outputs": [
        {
          "internalType": "uint128",
          "name": "startTimeOffset",
          "type": "uint128"
        },
        {
          "internalType": "uint128",
          "name": "rewardsPerSecond",
          "type": "uint128"
        }
      ],
      "stateMutability": "view",
      "type": "function"
    },
    {
      "inputs": [
        {
          "internalType": "address",
          "name": "_user",
          "type": "address"
        },
        {
          "internalType": "uint256",
          "name": "_balance",
          "type": "uint256"
        },
        {
          "internalType": "uint256",
          "name": "_totalSupply",
          "type": "uint256"
        }
      ],
      "name": "handleAction",
      "outputs": [],
      "stateMutability": "nonpayable",
      "type": "function"
    },
    {
      "inputs": [],
      "name": "maxMintableTokens",
      "outputs": [
        {
          "internalType": "uint256",
          "name": "",
          "type": "uint256"
        }
      ],
      "stateMutability": "view",
      "type": "function"
    },
    {
      "inputs": [],
      "name": "mintedTokens",
      "outputs": [
        {
          "internalType": "uint256",
          "name": "",
          "type": "uint256"
        }
      ],
      "stateMutability": "view",
      "type": "function"
    },
    {
      "inputs": [],
      "name": "owner",
      "outputs": [
        {
          "internalType": "address",
          "name": "",
          "type": "address"
        }
      ],
      "stateMutability": "view",
      "type": "function"
    },
    {
      "inputs": [],
      "name": "poolConfigurator",
      "outputs": [
        {
          "internalType": "address",
          "name": "",
          "type": "address"
        }
      ],
      "stateMutability": "view",
      "type": "function"
    },
    {
      "inputs": [
        {
          "internalType": "address",
          "name": "",
          "type": "address"
        }
      ],
      "name": "poolInfo",
      "outputs": [
        {
          "internalType": "uint256",
          "name": "totalSupply",
          "type": "uint256"
        },
        {
          "internalType": "uint256",
          "name": "allocPoint",
          "type": "uint256"
        },
        {
          "internalType": "uint256",
          "name": "lastRewardTime",
          "type": "uint256"
        },
        {
          "internalType": "uint256",
          "name": "accRewardPerShare",
          "type": "uint256"
        },
        {
          "internalType": "contract IOnwardIncentivesController",
          "name": "onwardIncentives",
          "type": "address"
        }
      ],
      "stateMutability": "view",
      "type": "function"
    },
    {
      "inputs": [],
      "name": "poolLength",
      "outputs": [
        {
          "internalType": "uint256",
          "name": "",
          "type": "uint256"
        }
      ],
      "stateMutability": "view",
      "type": "function"
    },
    {
      "inputs": [
        {
          "internalType": "uint256",
          "name": "",
          "type": "uint256"
        }
      ],
      "name": "registeredTokens",
      "outputs": [
        {
          "internalType": "address",
          "name": "",
          "type": "address"
        }
      ],
      "stateMutability": "view",
      "type": "function"
    },
    {
      "inputs": [],
      "name": "renounceOwnership",
      "outputs": [],
      "stateMutability": "nonpayable",
      "type": "function"
    },
    {
      "inputs": [],
      "name": "rewardMinter",
      "outputs": [
        {
          "internalType": "contract IMultiFeeDistribution",
          "name": "",
          "type": "address"
        }
      ],
      "stateMutability": "view",
      "type": "function"
    },
    {
      "inputs": [],
      "name": "rewardsPerSecond",
      "outputs": [
        {
          "internalType": "uint256",
          "name": "",
          "type": "uint256"
        }
      ],
      "stateMutability": "view",
      "type": "function"
    },
    {
      "inputs": [
        {
          "internalType": "address",
          "name": "_user",
          "type": "address"
        },
        {
          "internalType": "address",
          "name": "_receiver",
          "type": "address"
        }
      ],
      "name": "setClaimReceiver",
      "outputs": [],
      "stateMutability": "nonpayable",
      "type": "function"
    },
    {
      "inputs": [
        {
          "internalType": "address",
          "name": "_token",
          "type": "address"
        },
        {
          "internalType": "contract IOnwardIncentivesController",
          "name": "_incentives",
          "type": "address"
        }
      ],
      "name": "setOnwardIncentives",
      "outputs": [],
      "stateMutability": "nonpayable",
      "type": "function"
    },
    {
      "inputs": [],
      "name": "startTime",
      "outputs": [
        {
          "internalType": "uint256",
          "name": "",
          "type": "uint256"
        }
      ],
      "stateMutability": "view",
      "type": "function"
    },
    {
      "inputs": [],
      "name": "totalAllocPoint",
      "outputs": [
        {
          "internalType": "uint256",
          "name": "",
          "type": "uint256"
        }
      ],
      "stateMutability": "view",
      "type": "function"
    },
    {
      "inputs": [
        {
          "internalType": "address",
          "name": "newOwner",
          "type": "address"
        }
      ],
      "name": "transferOwnership",
      "outputs": [],
      "stateMutability": "nonpayable",
      "type": "function"
    },
    {
      "inputs": [
        {
          "internalType": "address",
          "name": "",
          "type": "address"
        }
      ],
      "name": "userBaseClaimable",
      "outputs": [
        {
          "internalType": "uint256",
          "name": "",
          "type": "uint256"
        }
      ],
      "stateMutability": "view",
      "type": "function"
    },
    {
      "inputs": [
        {
          "internalType": "address",
          "name": "",
          "type": "address"
        },
        {
          "internalType": "address",
          "name": "",
          "type": "address"
        }
      ],
      "name": "userInfo",
      "outputs": [
        {
          "internalType": "uint256",
          "name": "amount",
          "type": "uint256"
        },
        {
          "internalType": "uint256",
          "name": "rewardDebt",
          "type": "uint256"
        }
      ],
      "stateMutability": "view",
      "type": "function"
    }
  ],
  "bytecode": "0x60c06040526000600a553480156200001657600080fd5b50604051620019d8380380620019d8833981810160405260c08110156200003c57600080fd5b81019080805160405193929190846401000000008211156200005d57600080fd5b9083019060208201858111156200007357600080fd5b82518660208202830111640100000000821117156200009157600080fd5b82525081516020918201928201910280838360005b83811015620000c0578181015183820152602001620000a6565b5050505090500160405260200180516040519392919084640100000000821115620000ea57600080fd5b9083019060208201858111156200010057600080fd5b82518660208202830111640100000000821117156200011e57600080fd5b82525081516020918201928201910280838360005b838110156200014d57818101518382015260200162000133565b50505050919091016040908152602083015190830151606084015160809094015191955093509050600062000181620002c2565b600080546001600160a01b0319166001600160a01b0383169081178255604051929350917f8be0079c531659141344cd1fd0a4f28419497f9722a3daafe3b4186f6b6457e0908290a350600180546001600160a01b038087166001600160a01b0319928316179092556002805492861692909116919091179055855160001981015b6001810115620002ac57600760405180604001604052808a84815181106200022757fe5b60200260200101516001600160801b031681526020018984815181106200024a57fe5b6020908102919091018101516001600160801b03908116909252835460018101855560009485529381902083519401805493909101518216600160801b029382166001600160801b031990931692909217169190911790556000190162000203565b505060809190915260a05250620002c692505050565b3390565b60805160a0516116da620002fe60003980610bb8528061110c528061118e52508061064f5280611435528061146952506116da6000f3fe608060405234801561001057600080fd5b50600436106101585760003560e01c80638da5cb5b116100c3578063cd1a4d861161007c578063cd1a4d86146104c5578063de7e410c146104f3578063e20c5a8a146104fb578063e5b5349814610521578063eacdaabc146105ef578063f2fde38b146105f757610158565b80638da5cb5b1461037e5780638e2eba09146103a25780639a0ba2ea146104205780639a7b5f111461043d5780639b8e556314610497578063bfccff451461049f57610158565b80633328756411610115578063332875641461022e578063334d0bbd1461025c57806334c54230146102a8578063715018a61461036657806378e979251461036e5780638d75fe051461037657610158565b8063081e3eda1461015d5780630f208beb1461017757806317caf6f1146101be5780631a848e01146101c657806331873e2e146101ce57806332a9caba14610202575b600080fd5b61016561061d565b60408051918252519081900360200190f35b6101a56004803603604081101561018d57600080fd5b506001600160a01b0381358116916020013516610623565b6040805192835260208301919091528051918290030190f35b610165610647565b61016561064d565b610200600480360360608110156101e457600080fd5b506001600160a01b038135169060208101359060400135610671565b005b6102006004803603604081101561021857600080fd5b506001600160a01b038135169060200135610844565b6102006004803603604081101561024457600080fd5b506001600160a01b038135811691602001351661094a565b6102796004803603602081101561027257600080fd5b50356109b0565b60405180836001600160801b03168152602001826001600160801b031681526020019250505060405180910390f35b610200600480360360408110156102be57600080fd5b810190602081018135600160201b8111156102d857600080fd5b8201836020820111156102ea57600080fd5b803590602001918460208302840111600160201b8311171561030b57600080fd5b919390929091602081019035600160201b81111561032857600080fd5b82018360208201111561033a57600080fd5b803590602001918460208302840111600160201b8311171561035b57600080fd5b5090925090506109e5565b610200610b14565b610165610bb6565b610165610bda565b610386610be0565b604080516001600160a01b039092168252519081900360200190f35b610200600480360360408110156103b857600080fd5b6001600160a01b038235169190810190604081016020820135600160201b8111156103e257600080fd5b8201836020820111156103f457600080fd5b803590602001918460208302840111600160201b8311171561041557600080fd5b509092509050610bef565b6103866004803603602081101561043657600080fd5b5035610d2f565b6104636004803603602081101561045357600080fd5b50356001600160a01b0316610d59565b6040805195865260208601949094528484019290925260608401526001600160a01b03166080830152519081900360a00190f35b610386610d91565b610165600480360360208110156104b557600080fd5b50356001600160a01b0316610da0565b610200600480360360408110156104db57600080fd5b506001600160a01b0381358116916020013516610db2565b610386610e60565b6103866004803603602081101561051157600080fd5b50356001600160a01b0316610e6f565b61059f6004803603604081101561053757600080fd5b6001600160a01b038235169190810190604081016020820135600160201b81111561056157600080fd5b82018360208201111561057357600080fd5b803590602001918460208302840111600160201b8311171561059457600080fd5b509092509050610e8a565b60408051602080825283518183015283519192839290830191858101910280838360005b838110156105db5781810151838201526020016105c3565b505050509050019250505060405180910390f35b610165611009565b6102006004803603602081101561060d57600080fd5b50356001600160a01b031661100f565b60055490565b60086020908152600092835260408084209091529082529020805460019091015482565b600a5481565b7f000000000000000000000000000000000000000000000000000000000000000081565b336000908152600660205260409020600281015461068e57600080fd5b610696611107565b6106a281600a546111fa565b3360009081526008602090815260408083206001600160a01b038816845290915290208054600383015481156107445760018301546000906106fd906106f764e8d4a510006106f18787611290565b906112f2565b90611334565b90508015610742576001600160a01b0388166000908152600960205260409020546107289082611376565b6001600160a01b0389166000908152600960205260409020555b505b85835561075a64e8d4a510006106f18884611290565b600184015584845560048401546001600160a01b0316156107f3576004808501546040805163ae0b537160e01b815233938101939093526001600160a01b038a81166024850152604484018a905260648401899052905191169163ae0b537191608480830192600092919082900301818387803b1580156107da57600080fd5b505af11580156107ee573d6000803e3d6000fd5b505050505b604080518781526020810187905281516001600160a01b038a169233927f526824944047da5b81071fb6349412005c5da81380b336103fbe5dd34556c776929081900390910190a350505050505050565b6001546001600160a01b0316331461085b57600080fd5b6001600160a01b0382166000908152600660205260409020600201541561088157600080fd5b610889611107565b600a546108969082611376565b600a556005805460018181019092557f036b6384b5eca791c62761152d0c79bb0604c104a5fb6f4eb0703f3154bb3db00180546001600160a01b039485166001600160a01b031991821681179092556040805160a0810182526000808252602082810197885242838501908152606084018381526080850184815297845260069092529390912091518255955194810194909455516002840155925160038301555160049091018054919093169116179055565b336001600160a01b03831614806109795750610964610be0565b6001600160a01b0316336001600160a01b0316145b61098257600080fd5b6001600160a01b039182166000908152600b6020526040902080546001600160a01b03191691909216179055565b600781815481106109c057600080fd5b6000918252602090912001546001600160801b038082169250600160801b9091041682565b6109ed6113d0565b6000546001600160a01b03908116911614610a3d576040805162461bcd60e51b81526020600482018190526024820152600080516020611685833981519152604482015290519081900360640190fd5b828114610a4957600080fd5b610a516113d4565b600a5460005b84811015610b0a57600060066000888885818110610a7157fe5b905060200201356001600160a01b03166001600160a01b03166001600160a01b0316815260200190815260200160002090506000816002015411610ab457600080fd5b610ae7858584818110610ac357fe5b90506020020135610ae183600101548661133490919063ffffffff16565b90611376565b9250848483818110610af557fe5b60200291909101356001928301555001610a57565b50600a5550505050565b610b1c6113d0565b6000546001600160a01b03908116911614610b6c576040805162461bcd60e51b81526020600482018190526024820152600080516020611685833981519152604482015290519081900360640190fd5b600080546040516001600160a01b03909116907f8be0079c531659141344cd1fd0a4f28419497f9722a3daafe3b4186f6b6457e0908390a3600080546001600160a01b0319169055565b7f000000000000000000000000000000000000000000000000000000000000000081565b60045481565b6000546001600160a01b031690565b610bf7611107565b6001600160a01b0383166000908152600960205260408120805490829055600a5490915b83811015610d1d57600060066000878785818110610c3557fe5b905060200201356001600160a01b03166001600160a01b03166001600160a01b0316815260200190815260200160002090506000816002015411610c7857600080fd5b610c8281846111fa565b600060086000888886818110610c9457fe5b6001600160a01b036020918202939093013583168452838101949094525060409182016000908120918c1681529252812060038401548154919350610ce49164e8d4a51000916106f19190611290565b9050610d07610d0083600101548361133490919063ffffffff16565b8790611376565b6001928301919091559450919091019050610c1b565b50610d288583611430565b5050505050565b60058181548110610d3f57600080fd5b6000918252602090912001546001600160a01b0316905081565b60066020526000908152604090208054600182015460028301546003840154600490940154929391929091906001600160a01b031685565b6002546001600160a01b031681565b60096020526000908152604090205481565b610dba6113d0565b6000546001600160a01b03908116911614610e0a576040805162461bcd60e51b81526020600482018190526024820152600080516020611685833981519152604482015290519081900360640190fd5b6001600160a01b038216600090815260066020526040902060020154610e2f57600080fd5b6001600160a01b03918216600090815260066020526040902060040180546001600160a01b03191691909216179055565b6001546001600160a01b031681565b600b602052600090815260409020546001600160a01b031681565b606060008267ffffffffffffffff81118015610ea557600080fd5b50604051908082528060200260200182016040528015610ecf578160200160208202803683370190505b50905060005b83811015611000576000858583818110610eeb57fe5b6001600160a01b03602091820293909301358316600081815260068352604080822060088552818320968e16835295909352919091206003840154845460028601549396509193509142118015610f4157508015155b15610fb0576000610f5f85600201544261133490919063ffffffff16565b90506000610f8c600a546106f18860010154610f866003548761129090919063ffffffff16565b90611290565b9050610fab610fa4846106f18464e8d4a51000611290565b8590611376565b935050505b610fd883600101546106f764e8d4a510006106f186886000015461129090919063ffffffff16565b878781518110610fe457fe5b6020908102919091010152505060019093019250610ed5915050565b50949350505050565b60035481565b6110176113d0565b6000546001600160a01b03908116911614611067576040805162461bcd60e51b81526020600482018190526024820152600080516020611685833981519152604482015290519081900360640190fd5b6001600160a01b0381166110ac5760405162461bcd60e51b815260040180806020018281038252602681526020018061163e6026913960400191505060405180910390fd5b600080546040516001600160a01b03808516939216917f8be0079c531659141344cd1fd0a4f28419497f9722a3daafe3b4186f6b6457e091a3600080546001600160a01b0319166001600160a01b0392909216919091179055565b6007547f0000000000000000000000000000000000000000000000000000000000000000421180156111395750600081115b156111f75760006007600183038154811061115057fe5b6000918252602091829020604080518082019091529101546001600160801b03808216808452600160801b909204169282019290925291506111b2427f0000000000000000000000000000000000000000000000000000000000000000611334565b11156111f5576111c06113d4565b60208101516001600160801b031660035560078054806111dc57fe5b6000828152602081208201600019908101919091550190555b505b50565b8160020154421161120a576111f5565b81548061121d57504260028301556111f5565b600061123684600201544261133490919063ffffffff16565b9050600061125b846106f18760010154610f866003548761129090919063ffffffff16565b905061127e611273846106f18464e8d4a51000611290565b600387015490611376565b60038601555050426002840155505050565b60008261129f575060006112ec565b828202828482816112ac57fe5b04146112e95760405162461bcd60e51b81526004018080602001828103825260218152602001806116646021913960400191505060405180910390fd5b90505b92915050565b60006112e983836040518060400160405280601a81526020017f536166654d6174683a206469766973696f6e206279207a65726f000000000000815250611541565b60006112e983836040518060400160405280601e81526020017f536166654d6174683a207375627472616374696f6e206f766572666c6f7700008152506115e3565b6000828201838110156112e9576040805162461bcd60e51b815260206004820152601b60248201527f536166654d6174683a206164646974696f6e206f766572666c6f770000000000604482015290519081900360640190fd5b3390565b600a5460055460005b8181101561142b5761142360066000600584815481106113f957fe5b60009182526020808320909101546001600160a01b031683528201929092526040019020846111fa565b6001016113dd565b505050565b6004547f000000000000000000000000000000000000000000000000000000000000000061145e8284611376565b11156114915761148e7f000000000000000000000000000000000000000000000000000000000000000082611334565b91505b811561142b576114a18183611376565b6004556001600160a01b038084166000908152600b602052604090205416806114c75750825b600254604080516334686fad60e21b81526001600160a01b03848116600483015260248201879052600160448301529151919092169163d1a1beb491606480830192600092919082900301818387803b15801561152357600080fd5b505af1158015611537573d6000803e3d6000fd5b5050505050505050565b600081836115cd5760405162461bcd60e51b81526004018080602001828103825283818151815260200191508051906020019080838360005b8381101561159257818101518382015260200161157a565b50505050905090810190601f1680156115bf5780820380516001836020036101000a031916815260200191505b509250505060405180910390fd5b5060008385816115d957fe5b0495945050505050565b600081848411156116355760405162461bcd60e51b815260206004820181815283516024840152835190928392604490910191908501908083836000831561159257818101518382015260200161157a565b50505090039056fe4f776e61626c653a206e6577206f776e657220697320746865207a65726f2061646472657373536166654d6174683a206d756c7469706c69636174696f6e206f766572666c6f774f776e61626c653a2063616c6c6572206973206e6f7420746865206f776e6572a264697066735822122076892416e392c93b425b99460d3a97dcc6bbca08bb34dee81fe1eb2a966c93e264736f6c63430007060033",
  "linkReferences": {},
  "deployedLinkReferences": {}
}