{
  "_format": "hh-sol-artifact-1",
  "contractName": "LendingPoolConfigurator",
  "sourceName": "contracts/protocol/lendingpool/LendingPoolConfigurator.sol",
  "abi": [
    {
      "anonymous": false,
      "inputs": [
        {
          "indexed": true,
          "internalType": "address",
          "name": "asset",
          "type": "address"
        },
        {
          "indexed": true,
          "internalType": "address",
          "name": "proxy",
          "type": "address"
        },
        {
          "indexed": true,
          "internalType": "address",
          "name": "implementation",
          "type": "address"
        }
      ],
      "name": "ATokenUpgraded",
      "type": "event"
    },
    {
      "anonymous": false,
      "inputs": [
        {
          "indexed": true,
          "internalType": "address",
          "name": "asset",
          "type": "address"
        }
      ],
      "name": "BorrowingDisabledOnReserve",
      "type": "event"
    },
    {
      "anonymous": false,
      "inputs": [
        {
          "indexed": true,
          "internalType": "address",
          "name": "asset",
          "type": "address"
        },
        {
          "indexed": false,
          "internalType": "bool",
          "name": "stableRateEnabled",
          "type": "bool"
        }
      ],
      "name": "BorrowingEnabledOnReserve",
      "type": "event"
    },
    {
      "anonymous": false,
      "inputs": [
        {
          "indexed": true,
          "internalType": "address",
          "name": "asset",
          "type": "address"
        },
        {
          "indexed": false,
          "internalType": "uint256",
          "name": "ltv",
          "type": "uint256"
        },
        {
          "indexed": false,
          "internalType": "uint256",
          "name": "liquidationThreshold",
          "type": "uint256"
        },
        {
          "indexed": false,
          "internalType": "uint256",
          "name": "liquidationBonus",
          "type": "uint256"
        }
      ],
      "name": "CollateralConfigurationChanged",
      "type": "event"
    },
    {
      "anonymous": false,
      "inputs": [
        {
          "indexed": true,
          "internalType": "address",
          "name": "asset",
          "type": "address"
        }
      ],
      "name": "ReserveActivated",
      "type": "event"
    },
    {
      "anonymous": false,
      "inputs": [
        {
          "indexed": true,
          "internalType": "address",
          "name": "asset",
          "type": "address"
        }
      ],
      "name": "ReserveDeactivated",
      "type": "event"
    },
    {
      "anonymous": false,
      "inputs": [
        {
          "indexed": true,
          "internalType": "address",
          "name": "asset",
          "type": "address"
        },
        {
          "indexed": false,
          "internalType": "uint256",
          "name": "decimals",
          "type": "uint256"
        }
      ],
      "name": "ReserveDecimalsChanged",
      "type": "event"
    },
    {
      "anonymous": false,
      "inputs": [
        {
          "indexed": true,
          "internalType": "address",
          "name": "asset",
          "type": "address"
        },
        {
          "indexed": false,
          "internalType": "uint256",
          "name": "factor",
          "type": "uint256"
        }
      ],
      "name": "ReserveFactorChanged",
      "type": "event"
    },
    {
      "anonymous": false,
      "inputs": [
        {
          "indexed": true,
          "internalType": "address",
          "name": "asset",
          "type": "address"
        }
      ],
      "name": "ReserveFrozen",
      "type": "event"
    },
    {
      "anonymous": false,
      "inputs": [
        {
          "indexed": true,
          "internalType": "address",
          "name": "asset",
          "type": "address"
        },
        {
          "indexed": true,
          "internalType": "address",
          "name": "aToken",
          "type": "address"
        },
        {
          "indexed": false,
          "internalType": "address",
          "name": "stableDebtToken",
          "type": "address"
        },
        {
          "indexed": false,
          "internalType": "address",
          "name": "variableDebtToken",
          "type": "address"
        },
        {
          "indexed": false,
          "internalType": "address",
          "name": "interestRateStrategyAddress",
          "type": "address"
        }
      ],
      "name": "ReserveInitialized",
      "type": "event"
    },
    {
      "anonymous": false,
      "inputs": [
        {
          "indexed": true,
          "internalType": "address",
          "name": "asset",
          "type": "address"
        },
        {
          "indexed": false,
          "internalType": "address",
          "name": "strategy",
          "type": "address"
        }
      ],
      "name": "ReserveInterestRateStrategyChanged",
      "type": "event"
    },
    {
      "anonymous": false,
      "inputs": [
        {
          "indexed": true,
          "internalType": "address",
          "name": "asset",
          "type": "address"
        }
      ],
      "name": "ReserveUnfrozen",
      "type": "event"
    },
    {
      "anonymous": false,
      "inputs": [
        {
          "indexed": true,
          "internalType": "address",
          "name": "asset",
          "type": "address"
        },
        {
          "indexed": true,
          "internalType": "address",
          "name": "proxy",
          "type": "address"
        },
        {
          "indexed": true,
          "internalType": "address",
          "name": "implementation",
          "type": "address"
        }
      ],
      "name": "StableDebtTokenUpgraded",
      "type": "event"
    },
    {
      "anonymous": false,
      "inputs": [
        {
          "indexed": true,
          "internalType": "address",
          "name": "asset",
          "type": "address"
        }
      ],
      "name": "StableRateDisabledOnReserve",
      "type": "event"
    },
    {
      "anonymous": false,
      "inputs": [
        {
          "indexed": true,
          "internalType": "address",
          "name": "asset",
          "type": "address"
        }
      ],
      "name": "StableRateEnabledOnReserve",
      "type": "event"
    },
    {
      "anonymous": false,
      "inputs": [
        {
          "indexed": true,
          "internalType": "address",
          "name": "asset",
          "type": "address"
        },
        {
          "indexed": true,
          "internalType": "address",
          "name": "proxy",
          "type": "address"
        },
        {
          "indexed": true,
          "internalType": "address",
          "name": "implementation",
          "type": "address"
        }
      ],
      "name": "VariableDebtTokenUpgraded",
      "type": "event"
    },
    {
      "inputs": [
        {
          "internalType": "address",
          "name": "asset",
          "type": "address"
        }
      ],
      "name": "activateReserve",
      "outputs": [],
      "stateMutability": "nonpayable",
      "type": "function"
    },
    {
      "inputs": [
        {
          "components": [
            {
              "internalType": "address",
              "name": "aTokenImpl",
              "type": "address"
            },
            {
              "internalType": "address",
              "name": "stableDebtTokenImpl",
              "type": "address"
            },
            {
              "internalType": "address",
              "name": "variableDebtTokenImpl",
              "type": "address"
            },
            {
              "internalType": "uint8",
              "name": "underlyingAssetDecimals",
              "type": "uint8"
            },
            {
              "internalType": "address",
              "name": "interestRateStrategyAddress",
              "type": "address"
            },
            {
              "internalType": "address",
              "name": "underlyingAsset",
              "type": "address"
            },
            {
              "internalType": "address",
              "name": "treasury",
              "type": "address"
            },
            {
              "internalType": "address",
              "name": "incentivesController",
              "type": "address"
            },
            {
              "internalType": "uint256",
              "name": "allocPoint",
              "type": "uint256"
            },
            {
              "internalType": "string",
              "name": "underlyingAssetName",
              "type": "string"
            },
            {
              "internalType": "string",
              "name": "aTokenName",
              "type": "string"
            },
            {
              "internalType": "string",
              "name": "aTokenSymbol",
              "type": "string"
            },
            {
              "internalType": "string",
              "name": "variableDebtTokenName",
              "type": "string"
            },
            {
              "internalType": "string",
              "name": "variableDebtTokenSymbol",
              "type": "string"
            },
            {
              "internalType": "string",
              "name": "stableDebtTokenName",
              "type": "string"
            },
            {
              "internalType": "string",
              "name": "stableDebtTokenSymbol",
              "type": "string"
            },
            {
              "internalType": "bytes",
              "name": "params",
              "type": "bytes"
            }
          ],
          "internalType": "struct ILendingPoolConfigurator.InitReserveInput[]",
          "name": "input",
          "type": "tuple[]"
        }
      ],
      "name": "batchInitReserve",
      "outputs": [],
      "stateMutability": "nonpayable",
      "type": "function"
    },
    {
      "inputs": [
        {
          "internalType": "address",
          "name": "asset",
          "type": "address"
        },
        {
          "internalType": "uint256",
          "name": "ltv",
          "type": "uint256"
        },
        {
          "internalType": "uint256",
          "name": "liquidationThreshold",
          "type": "uint256"
        },
        {
          "internalType": "uint256",
          "name": "liquidationBonus",
          "type": "uint256"
        }
      ],
      "name": "configureReserveAsCollateral",
      "outputs": [],
      "stateMutability": "nonpayable",
      "type": "function"
    },
    {
      "inputs": [
        {
          "internalType": "address",
          "name": "asset",
          "type": "address"
        }
      ],
      "name": "deactivateReserve",
      "outputs": [],
      "stateMutability": "nonpayable",
      "type": "function"
    },
    {
      "inputs": [
        {
          "internalType": "address",
          "name": "asset",
          "type": "address"
        }
      ],
      "name": "disableBorrowingOnReserve",
      "outputs": [],
      "stateMutability": "nonpayable",
      "type": "function"
    },
    {
      "inputs": [
        {
          "internalType": "address",
          "name": "asset",
          "type": "address"
        }
      ],
      "name": "disableReserveStableRate",
      "outputs": [],
      "stateMutability": "nonpayable",
      "type": "function"
    },
    {
      "inputs": [
        {
          "internalType": "address",
          "name": "asset",
          "type": "address"
        },
        {
          "internalType": "bool",
          "name": "stableBorrowRateEnabled",
          "type": "bool"
        }
      ],
      "name": "enableBorrowingOnReserve",
      "outputs": [],
      "stateMutability": "nonpayable",
      "type": "function"
    },
    {
      "inputs": [
        {
          "internalType": "address",
          "name": "asset",
          "type": "address"
        }
      ],
      "name": "enableReserveStableRate",
      "outputs": [],
      "stateMutability": "nonpayable",
      "type": "function"
    },
    {
      "inputs": [
        {
          "internalType": "address",
          "name": "asset",
          "type": "address"
        }
      ],
      "name": "freezeReserve",
      "outputs": [],
      "stateMutability": "nonpayable",
      "type": "function"
    },
    {
      "inputs": [
        {
          "internalType": "contract ILendingPoolAddressesProvider",
          "name": "provider",
          "type": "address"
        }
      ],
      "name": "initialize",
      "outputs": [],
      "stateMutability": "nonpayable",
      "type": "function"
    },
    {
      "inputs": [
        {
          "internalType": "bool",
          "name": "val",
          "type": "bool"
        }
      ],
      "name": "setPoolPause",
      "outputs": [],
      "stateMutability": "nonpayable",
      "type": "function"
    },
    {
      "inputs": [
        {
          "internalType": "address",
          "name": "asset",
          "type": "address"
        },
        {
          "internalType": "uint256",
          "name": "reserveFactor",
          "type": "uint256"
        }
      ],
      "name": "setReserveFactor",
      "outputs": [],
      "stateMutability": "nonpayable",
      "type": "function"
    },
    {
      "inputs": [
        {
          "internalType": "address",
          "name": "asset",
          "type": "address"
        },
        {
          "internalType": "address",
          "name": "rateStrategyAddress",
          "type": "address"
        }
      ],
      "name": "setReserveInterestRateStrategyAddress",
      "outputs": [],
      "stateMutability": "nonpayable",
      "type": "function"
    },
    {
      "inputs": [
        {
          "internalType": "address",
          "name": "asset",
          "type": "address"
        }
      ],
      "name": "unfreezeReserve",
      "outputs": [],
      "stateMutability": "nonpayable",
      "type": "function"
    },
    {
      "inputs": [
        {
          "components": [
            {
              "internalType": "address",
              "name": "asset",
              "type": "address"
            },
            {
              "internalType": "address",
              "name": "treasury",
              "type": "address"
            },
            {
              "internalType": "address",
              "name": "incentivesController",
              "type": "address"
            },
            {
              "internalType": "string",
              "name": "name",
              "type": "string"
            },
            {
              "internalType": "string",
              "name": "symbol",
              "type": "string"
            },
            {
              "internalType": "address",
              "name": "implementation",
              "type": "address"
            },
            {
              "internalType": "bytes",
              "name": "params",
              "type": "bytes"
            }
          ],
          "internalType": "struct ILendingPoolConfigurator.UpdateATokenInput",
          "name": "input",
          "type": "tuple"
        }
      ],
      "name": "updateAToken",
      "outputs": [],
      "stateMutability": "nonpayable",
      "type": "function"
    },
    {
      "inputs": [
        {
          "components": [
            {
              "internalType": "address",
              "name": "asset",
              "type": "address"
            },
            {
              "internalType": "address",
              "name": "incentivesController",
              "type": "address"
            },
            {
              "internalType": "string",
              "name": "name",
              "type": "string"
            },
            {
              "internalType": "string",
              "name": "symbol",
              "type": "string"
            },
            {
              "internalType": "address",
              "name": "implementation",
              "type": "address"
            },
            {
              "internalType": "bytes",
              "name": "params",
              "type": "bytes"
            }
          ],
          "internalType": "struct ILendingPoolConfigurator.UpdateDebtTokenInput",
          "name": "input",
          "type": "tuple"
        }
      ],
      "name": "updateStableDebtToken",
      "outputs": [],
      "stateMutability": "nonpayable",
      "type": "function"
    },
    {
      "inputs": [
        {
          "components": [
            {
              "internalType": "address",
              "name": "asset",
              "type": "address"
            },
            {
              "internalType": "address",
              "name": "incentivesController",
              "type": "address"
            },
            {
              "internalType": "string",
              "name": "name",
              "type": "string"
            },
            {
              "internalType": "string",
              "name": "symbol",
              "type": "string"
            },
            {
              "internalType": "address",
              "name": "implementation",
              "type": "address"
            },
            {
              "internalType": "bytes",
              "name": "params",
              "type": "bytes"
            }
          ],
          "internalType": "struct ILendingPoolConfigurator.UpdateDebtTokenInput",
          "name": "input",
          "type": "tuple"
        }
      ],
      "name": "updateVariableDebtToken",
      "outputs": [],
      "stateMutability": "nonpayable",
      "type": "function"
    }
  ],
  "bytecode": "0x60806040526000805534801561001457600080fd5b50613fca806100246000396000f3fe608060405234801561001057600080fd5b506004361061010b5760003560e01c8063ab646186116100a2578063bf34418311610071578063bf344183146101f6578063c4d66de814610209578063eede87c11461021c578063ef1f93731461022f578063f53a2515146102425761010b565b8063ab646186146101aa578063ad4e6432146101bd578063b75d6f34146101d0578063bb01c37c146101e35761010b565b80637641f3d9116100de5780637641f3d91461015e5780637aca76eb146101715780637c4e560b14610184578063a8dc0f45146101975761010b565b80631d2118f9146101105780633e72a454146101255780634b4e6753146101385780637626cde31461014b575b600080fd5b61012361011e366004613128565b610255565b005b6101236101333660046130e9565b6103c7565b610123610146366004613194565b6105bb565b6101236101593660046133c5565b6107b3565b61012361016c366004613268565b610ac8565b61012361017f3660046130e9565b610bed565b6101236101923660046131bf565b610dd8565b6101236101a53660046130e9565b6110fa565b6101236101b83660046131f9565b6112e5565b6101236101cb3660046133c5565b6113f1565b6101236101de3660046130e9565b61168f565b6101236101f136600461338d565b61187a565b6101236102043660046130e9565b611b2a565b6101236102173660046130e9565b611d15565b61012361022a366004613160565b611e66565b61012361023d3660046130e9565b61205c565b6101236102503660046130e9565b612247565b603454604080516315d9b46f60e31b8152905133926001600160a01b03169163aecda378916004808301926020929190829003018186803b15801561029957600080fd5b505afa1580156102ad573d6000803e3d6000fd5b505050506040513d601f19601f820116820180604052508101906102d1919061310c565b6001600160a01b03161460405180604001604052806002815260200161333360f01b8152509061031d5760405162461bcd60e51b815260040161031491906136f4565b60405180910390fd5b50603554604051631d2118f960e01b81526001600160a01b0390911690631d2118f99061035090859085906004016134ba565b600060405180830381600087803b15801561036a57600080fd5b505af115801561037e573d6000803e3d6000fd5b50505050816001600160a01b03167f5644b64ebb0ce18c4032248ca52f58355469092ff072866c3dcd8640e817d6a5826040516103bb91906134a6565b60405180910390a25050565b603454604080516315d9b46f60e31b8152905133926001600160a01b03169163aecda378916004808301926020929190829003018186803b15801561040b57600080fd5b505afa15801561041f573d6000803e3d6000fd5b505050506040513d601f19601f82011682018060405250810190610443919061310c565b6001600160a01b03161460405180604001604052806002815260200161333360f01b815250906104865760405162461bcd60e51b815260040161031491906136f4565b5061049081612432565b60355460405163c44b11f760e01b81526000916001600160a01b03169063c44b11f7906104c19085906004016134a6565b60206040518083038186803b1580156104d957600080fd5b505afa1580156104ed573d6000803e3d6000fd5b505050506040513d601f19601f820116820180604052508101906105119190613282565b905061051e81600061258c565b6035548151604051635c69493b60e11b81526001600160a01b039092169163b8d292769161055191869190600401613555565b600060405180830381600087803b15801561056b57600080fd5b505af115801561057f573d6000803e3d6000fd5b50506040516001600160a01b03851692507f6f60cf8bd0f218cabe1ea3150bd07b0b758c35c4cfdf7138017a283e65564d5e9150600090a25050565b603454604080516315d9b46f60e31b8152905133926001600160a01b03169163aecda378916004808301926020929190829003018186803b1580156105ff57600080fd5b505afa158015610613573d6000803e3d6000fd5b505050506040513d601f19601f82011682018060405250810190610637919061310c565b6001600160a01b03161460405180604001604052806002815260200161333360f01b8152509061067a5760405162461bcd60e51b815260040161031491906136f4565b5060355460405163c44b11f760e01b81526000916001600160a01b03169063c44b11f7906106ac9086906004016134a6565b60206040518083038186803b1580156106c457600080fd5b505afa1580156106d8573d6000803e3d6000fd5b505050506040513d601f19601f820116820180604052508101906106fc9190613282565b905061070881836125ba565b6035548151604051635c69493b60e11b81526001600160a01b039092169163b8d292769161073b91879190600401613555565b600060405180830381600087803b15801561075557600080fd5b505af1158015610769573d6000803e3d6000fd5b50505050826001600160a01b03167f2694ccb0b585b6a54b8d8b4a47aa874b05c257b43d34e98aee50838be00d3405836040516107a69190613707565b60405180910390a2505050565b603454604080516315d9b46f60e31b8152905133926001600160a01b03169163aecda378916004808301926020929190829003018186803b1580156107f757600080fd5b505afa15801561080b573d6000803e3d6000fd5b505050506040513d601f19601f8201168201806040525081019061082f919061310c565b6001600160a01b03161460405180604001604052806002815260200161333360f01b815250906108725760405162461bcd60e51b815260040161031491906136f4565b506035546001600160a01b03166000816335ea6a7561089460208601866130e9565b6040518263ffffffff1660e01b81526004016108b091906134a6565b6101806040518083038186803b1580156108c957600080fd5b505afa1580156108dd573d6000803e3d6000fd5b505050506040513d601f19601f82011682018060405250810190610901919061329d565b905060006109956001600160a01b03841663c44b11f761092460208801886130e9565b6040518263ffffffff1660e01b815260040161094091906134a6565b60206040518083038186803b15801561095857600080fd5b505afa15801561096c573d6000803e3d6000fd5b505050506040513d601f19601f820116820180604052508101906109909190613282565b61267c565b50935060009250636111764560e11b91508590506109b660208801886130e9565b6109c66040890160208a016130e9565b856109d460408b018b613772565b6109e160608d018d613772565b6109ee60a08f018f613726565b604051602401610a079a99989796959493929190613641565b60408051601f198184030181529190526020810180516001600160e01b03166001600160e01b031990931692909217909152610100840151909150610a5c90610a5660a08801608089016130e9565b836126a7565b610a6c60a08601608087016130e9565b6101008401516001600160a01b039182169116610a8c60208801886130e9565b6001600160a01b03167f7a943a5b6c214bf7726c069a878b1e2a8e7371981d516048b84e03743e67bc2860405160405180910390a45050505050565b60345460408051636ee554f560e11b8152905133926001600160a01b03169163ddcaa9ea916004808301926020929190829003018186803b158015610b0c57600080fd5b505afa158015610b20573d6000803e3d6000fd5b505050506040513d601f19601f82011682018060405250810190610b44919061310c565b6001600160a01b031614604051806040016040528060028152602001611b9b60f11b81525090610b875760405162461bcd60e51b815260040161031491906136f4565b5060355460405163bedb86fb60e01b81526001600160a01b039091169063bedb86fb90610bb890849060040161356e565b600060405180830381600087803b158015610bd257600080fd5b505af1158015610be6573d6000803e3d6000fd5b5050505050565b603454604080516315d9b46f60e31b8152905133926001600160a01b03169163aecda378916004808301926020929190829003018186803b158015610c3157600080fd5b505afa158015610c45573d6000803e3d6000fd5b505050506040513d601f19601f82011682018060405250810190610c69919061310c565b6001600160a01b03161460405180604001604052806002815260200161333360f01b81525090610cac5760405162461bcd60e51b815260040161031491906136f4565b5060355460405163c44b11f760e01b81526000916001600160a01b03169063c44b11f790610cde9085906004016134a6565b60206040518083038186803b158015610cf657600080fd5b505afa158015610d0a573d6000803e3d6000fd5b505050506040513d601f19601f82011682018060405250810190610d2e9190613282565b9050610d3b81600161270f565b6035548151604051635c69493b60e11b81526001600160a01b039092169163b8d2927691610d6e91869190600401613555565b600060405180830381600087803b158015610d8857600080fd5b505af1158015610d9c573d6000803e3d6000fd5b50506040516001600160a01b03851692507f85dc710add8a0914461a7dc5a63f6fc529a7700f8c6089a3faf5e93256ccf12a9150600090a25050565b603454604080516315d9b46f60e31b8152905133926001600160a01b03169163aecda378916004808301926020929190829003018186803b158015610e1c57600080fd5b505afa158015610e30573d6000803e3d6000fd5b505050506040513d601f19601f82011682018060405250810190610e54919061310c565b6001600160a01b03161460405180604001604052806002815260200161333360f01b81525090610e975760405162461bcd60e51b815260040161031491906136f4565b5060355460405163c44b11f760e01b81526000916001600160a01b03169063c44b11f790610ec99088906004016134a6565b60206040518083038186803b158015610ee157600080fd5b505afa158015610ef5573d6000803e3d6000fd5b505050506040513d601f19601f82011682018060405250810190610f199190613282565b90508284111560405180604001604052806002815260200161373560f01b81525090610f585760405162461bcd60e51b815260040161031491906136f4565b508215610fe957604080518082019091526002815261373560f01b60208201526127108311610f9a5760405162461bcd60e51b815260040161031491906136f4565b50612710610fa8848461273d565b111560405180604001604052806002815260200161373560f01b81525090610fe35760405162461bcd60e51b815260040161031491906136f4565b5061102b565b604080518082019091526002815261373560f01b602082015282156110215760405162461bcd60e51b815260040161031491906136f4565b5061102b85612432565b61103581856127e2565b61103f8184612859565b61104981836128d8565b6035548151604051635c69493b60e11b81526001600160a01b039092169163b8d292769161107c91899190600401613555565b600060405180830381600087803b15801561109657600080fd5b505af11580156110aa573d6000803e3d6000fd5b50505050846001600160a01b03167f637febbda9275aea2e85c0ff690444c8d87eb2e8339bbede9715abcc89cb09958585856040516110eb93929190613710565b60405180910390a25050505050565b603454604080516315d9b46f60e31b8152905133926001600160a01b03169163aecda378916004808301926020929190829003018186803b15801561113e57600080fd5b505afa158015611152573d6000803e3d6000fd5b505050506040513d601f19601f82011682018060405250810190611176919061310c565b6001600160a01b03161460405180604001604052806002815260200161333360f01b815250906111b95760405162461bcd60e51b815260040161031491906136f4565b5060355460405163c44b11f760e01b81526000916001600160a01b03169063c44b11f7906111eb9085906004016134a6565b60206040518083038186803b15801561120357600080fd5b505afa158015611217573d6000803e3d6000fd5b505050506040513d601f19601f8201168201806040525081019061123b9190613282565b9050611248816000612959565b6035548151604051635c69493b60e11b81526001600160a01b039092169163b8d292769161127b91869190600401613555565b600060405180830381600087803b15801561129557600080fd5b505af11580156112a9573d6000803e3d6000fd5b50506040516001600160a01b03851692507fe9a7e5fd4fc8ea18e602350324bf48e8f05d12434af0ce0be05743e6a5fdcb9e9150600090a25050565b603454604080516315d9b46f60e31b8152905133926001600160a01b03169163aecda378916004808301926020929190829003018186803b15801561132957600080fd5b505afa15801561133d573d6000803e3d6000fd5b505050506040513d601f19601f82011682018060405250810190611361919061310c565b6001600160a01b03161460405180604001604052806002815260200161333360f01b815250906113a45760405162461bcd60e51b815260040161031491906136f4565b506035546001600160a01b031660005b828110156113eb576113e3828585848181106113cc57fe5b90506020028101906113de9190613788565b612987565b6001016113b4565b50505050565b603454604080516315d9b46f60e31b8152905133926001600160a01b03169163aecda378916004808301926020929190829003018186803b15801561143557600080fd5b505afa158015611449573d6000803e3d6000fd5b505050506040513d601f19601f8201168201806040525081019061146d919061310c565b6001600160a01b03161460405180604001604052806002815260200161333360f01b815250906114b05760405162461bcd60e51b815260040161031491906136f4565b506035546001600160a01b03166000816335ea6a756114d260208601866130e9565b6040518263ffffffff1660e01b81526004016114ee91906134a6565b6101806040518083038186803b15801561150757600080fd5b505afa15801561151b573d6000803e3d6000fd5b505050506040513d601f19601f8201168201806040525081019061153f919061329d565b905060006115626001600160a01b03841663c44b11f761092460208801886130e9565b50935060009250636111764560e11b915085905061158360208801886130e9565b6115936040890160208a016130e9565b856115a160408b018b613772565b6115ae60608d018d613772565b6115bb60a08f018f613726565b6040516024016115d49a99989796959493929190613641565b60408051601f198184030181529190526020810180516001600160e01b03166001600160e01b03199093169290921790915261012084015190915061162390610a5660a08801608089016130e9565b61163360a08601608087016130e9565b6101208401516001600160a01b03918216911661165360208801886130e9565b6001600160a01b03167f9439658a562a5c46b1173589df89cf001483d685bad28aedaff4a88656292d8160405160405180910390a45050505050565b603454604080516315d9b46f60e31b8152905133926001600160a01b03169163aecda378916004808301926020929190829003018186803b1580156116d357600080fd5b505afa1580156116e7573d6000803e3d6000fd5b505050506040513d601f19601f8201168201806040525081019061170b919061310c565b6001600160a01b03161460405180604001604052806002815260200161333360f01b8152509061174e5760405162461bcd60e51b815260040161031491906136f4565b5060355460405163c44b11f760e01b81526000916001600160a01b03169063c44b11f7906117809085906004016134a6565b60206040518083038186803b15801561179857600080fd5b505afa1580156117ac573d6000803e3d6000fd5b505050506040513d601f19601f820116820180604052508101906117d09190613282565b90506117dd81600161258c565b6035548151604051635c69493b60e11b81526001600160a01b039092169163b8d292769161181091869190600401613555565b600060405180830381600087803b15801561182a57600080fd5b505af115801561183e573d6000803e3d6000fd5b50506040516001600160a01b03851692507f35b80cd8ea3440e9a8454f116fa658b858da1b64c86c48451f4559cefcdfb56c9150600090a25050565b603454604080516315d9b46f60e31b8152905133926001600160a01b03169163aecda378916004808301926020929190829003018186803b1580156118be57600080fd5b505afa1580156118d2573d6000803e3d6000fd5b505050506040513d601f19601f820116820180604052508101906118f6919061310c565b6001600160a01b03161460405180604001604052806002815260200161333360f01b815250906119395760405162461bcd60e51b815260040161031491906136f4565b506035546001600160a01b03166000816335ea6a7561195b60208601866130e9565b6040518263ffffffff1660e01b815260040161197791906134a6565b6101806040518083038186803b15801561199057600080fd5b505afa1580156119a4573d6000803e3d6000fd5b505050506040513d601f19601f820116820180604052508101906119c8919061329d565b905060006119eb6001600160a01b03841663c44b11f761092460208801886130e9565b5093506000925063183fb41360e01b9150859050611a0f60408801602089016130e9565b611a1c60208901896130e9565b611a2c60608a0160408b016130e9565b86611a3a60608c018c613772565b611a4760808e018e613772565b8e8060c00190611a579190613726565b604051602401611a719b9a99989796959493929190613579565b60408051601f198184030181529190526020810180516001600160e01b03166001600160e01b03199093169290921790915260e0840151909150611abf90610a5660c0880160a089016130e9565b611acf60c0860160a087016130e9565b60e08401516001600160a01b039182169116611aee60208801886130e9565b6001600160a01b03167fa76f65411ec66a7fb6bc467432eb14767900449ae4469fa295e4441fe5e1cb7360405160405180910390a45050505050565b603454604080516315d9b46f60e31b8152905133926001600160a01b03169163aecda378916004808301926020929190829003018186803b158015611b6e57600080fd5b505afa158015611b82573d6000803e3d6000fd5b505050506040513d601f19601f82011682018060405250810190611ba6919061310c565b6001600160a01b03161460405180604001604052806002815260200161333360f01b81525090611be95760405162461bcd60e51b815260040161031491906136f4565b5060355460405163c44b11f760e01b81526000916001600160a01b03169063c44b11f790611c1b9085906004016134a6565b60206040518083038186803b158015611c3357600080fd5b505afa158015611c47573d6000803e3d6000fd5b505050506040513d601f19601f82011682018060405250810190611c6b9190613282565b9050611c78816001612eee565b6035548151604051635c69493b60e11b81526001600160a01b039092169163b8d2927691611cab91869190600401613555565b600060405180830381600087803b158015611cc557600080fd5b505af1158015611cd9573d6000803e3d6000fd5b50506040516001600160a01b03851692507f8dee2b2f3e98319ae6347eda521788f73f4086c9be9a594942b370b137fb8cb19150600090a25050565b6000611d1f612f1c565b60015490915060ff1680611d365750611d36612f21565b80611d42575060005481115b611d7d5760405162461bcd60e51b815260040180806020018281038252602e815260200180613f67602e913960400191505060405180910390fd5b60015460ff16158015611d9c576001805460ff19168117905560008290555b603480546001600160a01b0319166001600160a01b03858116919091179182905560408051630261bf8b60e01b815290519290911691630261bf8b91600480820192602092909190829003018186803b158015611df857600080fd5b505afa158015611e0c573d6000803e3d6000fd5b505050506040513d601f19601f82011682018060405250810190611e30919061310c565b603580546001600160a01b0319166001600160a01b03929092169190911790558015611e61576001805460ff191690555b505050565b603454604080516315d9b46f60e31b8152905133926001600160a01b03169163aecda378916004808301926020929190829003018186803b158015611eaa57600080fd5b505afa158015611ebe573d6000803e3d6000fd5b505050506040513d601f19601f82011682018060405250810190611ee2919061310c565b6001600160a01b03161460405180604001604052806002815260200161333360f01b81525090611f255760405162461bcd60e51b815260040161031491906136f4565b5060355460405163c44b11f760e01b81526000916001600160a01b03169063c44b11f790611f579086906004016134a6565b60206040518083038186803b158015611f6f57600080fd5b505afa158015611f83573d6000803e3d6000fd5b505050506040513d601f19601f82011682018060405250810190611fa79190613282565b9050611fb4816001612959565b611fbe8183612eee565b6035548151604051635c69493b60e11b81526001600160a01b039092169163b8d2927691611ff191879190600401613555565b600060405180830381600087803b15801561200b57600080fd5b505af115801561201f573d6000803e3d6000fd5b50505050826001600160a01b03167fab2f7f9e5ca2772fafa94f355c1842a80ae6b9e41f83083098d81f67d7a0b508836040516107a6919061356e565b603454604080516315d9b46f60e31b8152905133926001600160a01b03169163aecda378916004808301926020929190829003018186803b1580156120a057600080fd5b505afa1580156120b4573d6000803e3d6000fd5b505050506040513d601f19601f820116820180604052508101906120d8919061310c565b6001600160a01b03161460405180604001604052806002815260200161333360f01b8152509061211b5760405162461bcd60e51b815260040161031491906136f4565b5060355460405163c44b11f760e01b81526000916001600160a01b03169063c44b11f79061214d9085906004016134a6565b60206040518083038186803b15801561216557600080fd5b505afa158015612179573d6000803e3d6000fd5b505050506040513d601f19601f8201168201806040525081019061219d9190613282565b90506121aa81600061270f565b6035548151604051635c69493b60e11b81526001600160a01b039092169163b8d29276916121dd91869190600401613555565b600060405180830381600087803b1580156121f757600080fd5b505af115801561220b573d6000803e3d6000fd5b50506040516001600160a01b03851692507f838ecdc4709a31a26db48b0c853212cedde3f725f07030079d793fb0719647609150600090a25050565b603454604080516315d9b46f60e31b8152905133926001600160a01b03169163aecda378916004808301926020929190829003018186803b15801561228b57600080fd5b505afa15801561229f573d6000803e3d6000fd5b505050506040513d601f19601f820116820180604052508101906122c3919061310c565b6001600160a01b03161460405180604001604052806002815260200161333360f01b815250906123065760405162461bcd60e51b815260040161031491906136f4565b5060355460405163c44b11f760e01b81526000916001600160a01b03169063c44b11f7906123389085906004016134a6565b60206040518083038186803b15801561235057600080fd5b505afa158015612364573d6000803e3d6000fd5b505050506040513d601f19601f820116820180604052508101906123889190613282565b9050612395816000612eee565b6035548151604051635c69493b60e11b81526001600160a01b039092169163b8d29276916123c891869190600401613555565b600060405180830381600087803b1580156123e257600080fd5b505af11580156123f6573d6000803e3d6000fd5b50506040516001600160a01b03851692507f8bbf35441ac2c607ddecadd3d8ee58636d32f217fad201fb2655581502dd84e39150600090a25050565b6035546040516335ea6a7560e01b81526000916001600160a01b0316906335ea6a75906124639085906004016134a6565b6101806040518083038186803b15801561247c57600080fd5b505afa158015612490573d6000803e3d6000fd5b505050506040513d601f19601f820116820180604052508101906124b4919061329d565b90506000826001600160a01b03166370a082318360e001516040518263ffffffff1660e01b81526004016124e891906134a6565b60206040518083038186803b15801561250057600080fd5b505afa158015612514573d6000803e3d6000fd5b505050506040513d601f19601f8201168201806040525081019061253891906133fd565b905080158015612553575060608201516001600160801b0316155b604051806040016040528060028152602001610ccd60f21b815250906113eb5760405162461bcd60e51b815260040161031491906136f4565b60388161259a57600061259d565b60015b8351670100000000000000191660ff9190911690911b1790915250565b604080518082019091526002815261373160f01b602082015261ffff8211156126615760405162461bcd60e51b81526004018080602001828103825283818151815260200191508051906020019080838360005b8381101561262657818101518382015260200161260e565b50505050905090810190601f1680156126535780820380516001836020036101000a031916815260200191505b509250505060405180910390fd5b50815169ffff0000000000000000191660409190911b179052565b5161ffff80821692601083901c821692602081901c831692603082901c60ff169260409290921c1690565b60405163278f794360e11b815283906001600160a01b03821690634f1ef286906126d79086908690600401613529565b600060405180830381600087803b1580156126f157600080fd5b505af1158015612705573d6000803e3d6000fd5b5050505050505050565b60398161271d576000612720565b60015b8351670200000000000000191660ff9190911690911b1790915250565b600082158061274a575081155b15612757575060006127dc565b81611388198161276357fe5b0483111560405180604001604052806002815260200161068760f31b815250906127ce5760405162461bcd60e51b815260206004820181815283516024840152835190928392604490910191908501908083836000831561262657818101518382015260200161260e565b505061271061138882840201045b92915050565b604080518082019091526002815261363760f01b602082015261ffff82111561284c5760405162461bcd60e51b815260206004820181815283516024840152835190928392604490910191908501908083836000831561262657818101518382015260200161260e565b50815161ffff1916179052565b60408051808201909152600281526106c760f31b602082015261ffff8211156128c35760405162461bcd60e51b815260206004820181815283516024840152835190928392604490910191908501908083836000831561262657818101518382015260200161260e565b50815163ffff0000191660109190911b179052565b604080518082019091526002815261363960f01b602082015261ffff8211156129425760405162461bcd60e51b815260206004820181815283516024840152835190928392604490910191908501908083836000831561262657818101518382015260200161260e565b50815165ffff00000000191660209190911b179052565b603a8161296757600061296a565b60015b8351670400000000000000191660ff9190911690911b1790915250565b600061299a610100830160e084016130e9565b90506000612a666129ae60208501856130e9565b63183fb41360e01b866129c760e0880160c089016130e9565b6129d760c0890160a08a016130e9565b876129e860808b0160608c01613415565b6129f66101408c018c613772565b612a046101608e018e613772565b8e806102000190612a159190613726565b604051602401612a2f9b9a999897969594939291906135fa565b60408051601f198184030181529190526020810180516001600160e01b03166001600160e01b031990931692909217909152612f27565b604051631954e55d60e11b81529091506001600160a01b038316906332a9caba90612a9c90849061010088013590600401613555565b600060405180830381600087803b158015612ab657600080fd5b505af1158015612aca573d6000803e3d6000fd5b50612adf9250505060e0840160c085016130e9565b6001600160a01b0316639c9b2e21826040518263ffffffff1660e01b8152600401612b0a91906134a6565b600060405180830381600087803b158015612b2457600080fd5b505af1158015612b38573d6000803e3d6000fd5b505050506000612bd4846020016020810190612b5491906130e9565b636111764560e11b87612b6d60c0890160a08a016130e9565b612b7e6101008a0160e08b016130e9565b612b8e60808b0160608c01613415565b612b9c6101c08c018c613772565b612baa6101e08e018e613772565b8e806102000190612bbb9190613726565b604051602401612a2f9a999897969594939291906136b6565b90506000612c52612beb60608701604088016130e9565b636111764560e11b88612c0460c08a0160a08b016130e9565b612c156101008b0160e08c016130e9565b612c2560808c0160608d01613415565b612c336101808d018d613772565b612c416101a08f018f613772565b8f806102000190612bbb9190613726565b604051631954e55d60e11b81529091506001600160a01b038516906332a9caba90612c889084906101008a013590600401613555565b600060405180830381600087803b158015612ca257600080fd5b505af1158015612cb6573d6000803e3d6000fd5b5050506001600160a01b0387169050637a708e92612cda60c0880160a089016130e9565b858585612ced60a08c0160808d016130e9565b6040518663ffffffff1660e01b8152600401612d0d9594939291906134f7565b600060405180830381600087803b158015612d2757600080fd5b505af1158015612d3b573d6000803e3d6000fd5b506000925050506001600160a01b03871663c44b11f7612d6160c0890160a08a016130e9565b6040518263ffffffff1660e01b8152600401612d7d91906134a6565b60206040518083038186803b158015612d9557600080fd5b505afa158015612da9573d6000803e3d6000fd5b505050506040513d601f19601f82011682018060405250810190612dcd9190613282565b9050612dec612de26080880160608901613415565b829060ff16612fc9565b612df781600161258c565b612e0281600061270f565b6001600160a01b03871663b8d29276612e2160c0890160a08a016130e9565b83516040516001600160e01b031960e085901b168152612e45929190600401613555565b600060405180830381600087803b158015612e5f57600080fd5b505af1158015612e73573d6000803e3d6000fd5b5050506001600160a01b0385169050612e9260c0880160a089016130e9565b6001600160a01b03167f3a0ca721fc364424566385a1aa271ed508cc2c0949c2272575fb3013a163a45f8585612ece60a08c0160808d016130e9565b604051612edd939291906134d4565b60405180910390a350505050505050565b603b81612efc576000612eff565b60015b8351670800000000000000191660ff9190911690911b1790915250565b600190565b303b1590565b60008030604051612f379061304a565b612f4191906134a6565b604051809103906000f080158015612f5d573d6000803e3d6000fd5b5060405163347d5e2560e21b81529091506001600160a01b0382169063d1f5789490612f8f9087908790600401613529565b600060405180830381600087803b158015612fa957600080fd5b505af1158015612fbd573d6000803e3d6000fd5b50929695505050505050565b604080518082019091526002815261037360f41b602082015260ff8211156130325760405162461bcd60e51b815260206004820181815283516024840152835190928392604490910191908501908083836000831561262657818101518382015260200161260e565b50815166ff000000000000191660309190911b179052565b610773806137f483390190565b8051613062816137cc565b919050565b8035801515811461306257600080fd5b600060208284031215613088578081fd5b6040516020810181811067ffffffffffffffff821117156130a557fe5b6040529151825250919050565b80516001600160801b038116811461306257600080fd5b805164ffffffffff8116811461306257600080fd5b8051613062816137e4565b6000602082840312156130fa578081fd5b8135613105816137cc565b9392505050565b60006020828403121561311d578081fd5b8151613105816137cc565b6000806040838503121561313a578081fd5b8235613145816137cc565b91506020830135613155816137cc565b809150509250929050565b60008060408385031215613172578182fd5b823561317d816137cc565b915061318b60208401613067565b90509250929050565b600080604083850312156131a6578182fd5b82356131b1816137cc565b946020939093013593505050565b600080600080608085870312156131d4578182fd5b84356131df816137cc565b966020860135965060408601359560600135945092505050565b6000806020838503121561320b578182fd5b823567ffffffffffffffff80821115613222578384fd5b818501915085601f830112613235578384fd5b813581811115613243578485fd5b8660208083028501011115613256578485fd5b60209290920196919550909350505050565b600060208284031215613279578081fd5b61310582613067565b600060208284031215613293578081fd5b6131058383613077565b60006101808083850312156132b0578182fd5b6132b9816137a8565b90506132c58484613077565b81526132d3602084016130b2565b60208201526132e4604084016130b2565b60408201526132f5606084016130b2565b6060820152613306608084016130b2565b608082015261331760a084016130b2565b60a082015261332860c084016130c9565b60c082015261333960e08401613057565b60e082015261010061334c818501613057565b9082015261012061335e848201613057565b90820152610140613370848201613057565b908201526101606133828482016130de565b908201529392505050565b60006020828403121561339e578081fd5b813567ffffffffffffffff8111156133b4578182fd5b820160e08185031215613105578182fd5b6000602082840312156133d6578081fd5b813567ffffffffffffffff8111156133ec578182fd5b820160c08185031215613105578182fd5b60006020828403121561340e578081fd5b5051919050565b600060208284031215613426578081fd5b8135613105816137e4565b60008284528282602086013780602084860101526020601f19601f85011685010190509392505050565b60008151808452815b8181101561348057602081850181015186830182015201613464565b818111156134915782602083870101525b50601f01601f19169290920160200192915050565b6001600160a01b0391909116815260200190565b6001600160a01b0392831681529116602082015260400190565b6001600160a01b0393841681529183166020830152909116604082015260600190565b6001600160a01b0395861681529385166020850152918416604084015283166060830152909116608082015260a00190565b6001600160a01b038316815260406020820181905260009061354d9083018461345b565b949350505050565b6001600160a01b03929092168252602082015260400190565b901515815260200190565b6001600160a01b038c811682528b811660208301528a81166040830152891660608201526080810188905261010060a082018190526000906135be838201898b613431565b905082810360c08401526135d3818789613431565b905082810360e08401526135e8818587613431565b9e9d5050505050505050505050505050565b6001600160a01b038c811682528b811660208301528a811660408301528916606082015260ff8816608082015261010060a082018190526000906135be838201898b613431565b6001600160a01b038b811682528a81166020830152891660408201526060810188905260e06080820181905260009061367d908301888a613431565b82810360a0840152613690818789613431565b905082810360c08401526136a5818587613431565b9d9c50505050505050505050505050565b6001600160a01b038b811682528a811660208301528916604082015260ff8816606082015260e06080820181905260009061367d908301888a613431565b600060208252613105602083018461345b565b90815260200190565b9283526020830191909152604082015260600190565b6000808335601e1984360301811261373c578283fd5b83018035915067ffffffffffffffff821115613756578283fd5b60200191503681900382131561376b57600080fd5b9250929050565b6000808335601e1984360301811261373c578182fd5b6000823561021e1983360301811261379e578182fd5b9190910192915050565b60405181810167ffffffffffffffff811182821017156137c457fe5b604052919050565b6001600160a01b03811681146137e157600080fd5b50565b60ff811681146137e157600080fdfe60a060405234801561001057600080fd5b506040516107733803806107738339818101604052602081101561003357600080fd5b5051606081901b6001600160601b0319166080526001600160a01b03166106f36100806000398061022852806102725280610331528061045e528061048752806105af52506106f36000f3fe60806040526004361061004a5760003560e01c80633659cfe6146100545780634f1ef286146100875780635c60da1b14610107578063d1f5789414610138578063f851a440146101ee575b610052610203565b005b34801561006057600080fd5b506100526004803603602081101561007757600080fd5b50356001600160a01b031661021d565b6100526004803603604081101561009d57600080fd5b6001600160a01b0382351691908101906040810160208201356401000000008111156100c857600080fd5b8201836020820111156100da57600080fd5b803590602001918460018302840111640100000000831117156100fc57600080fd5b509092509050610267565b34801561011357600080fd5b5061011c610324565b604080516001600160a01b039092168252519081900360200190f35b6100526004803603604081101561014e57600080fd5b6001600160a01b03823516919081019060408101602082013564010000000081111561017957600080fd5b82018360208201111561018b57600080fd5b803590602001918460018302840111640100000000831117156101ad57600080fd5b91908080601f016020809104026020016040519081016040528093929190818152602001838380828437600092019190915250929550610371945050505050565b3480156101fa57600080fd5b5061011c610451565b61020b6104ab565b61021b6102166104b3565b6104d8565b565b336001600160a01b037f000000000000000000000000000000000000000000000000000000000000000016141561025c57610257816104fc565b610264565b610264610203565b50565b336001600160a01b037f0000000000000000000000000000000000000000000000000000000000000000161415610317576102a1836104fc565b6000836001600160a01b031683836040518083838082843760405192019450600093509091505080830381855af49150503d80600081146102fe576040519150601f19603f3d011682016040523d82523d6000602084013e610303565b606091505b505090508061031157600080fd5b5061031f565b61031f610203565b505050565b6000336001600160a01b037f00000000000000000000000000000000000000000000000000000000000000001614156103665761035f6104b3565b905061036e565b61036e610203565b90565b600061037b6104b3565b6001600160a01b03161461038e57600080fd5b6103978261053c565b80511561044d576000826001600160a01b0316826040518082805190602001908083835b602083106103da5780518252601f1990920191602091820191016103bb565b6001836020036101000a038019825116818451168082178552505050505050905001915050600060405180830381855af49150503d806000811461043a576040519150601f19603f3d011682016040523d82523d6000602084013e61043f565b606091505b505090508061031f57600080fd5b5050565b6000336001600160a01b037f000000000000000000000000000000000000000000000000000000000000000016141561036657507f000000000000000000000000000000000000000000000000000000000000000061036e565b61021b6105a4565b7f360894a13ba1a3210667c828492db98dca3e2076cc3735a920a3ca505d382bbc5490565b3660008037600080366000845af43d6000803e8080156104f7573d6000f35b3d6000fd5b6105058161053c565b6040516001600160a01b038216907fbc7cd75a20ee27fd9adebab32041f755214dbc6bffa90cc0225b39da2e5c2d3b90600090a250565b61054581610614565b6105805760405162461bcd60e51b815260040180806020018281038252603b815260200180610683603b913960400191505060405180910390fd5b7f360894a13ba1a3210667c828492db98dca3e2076cc3735a920a3ca505d382bbc55565b336001600160a01b037f000000000000000000000000000000000000000000000000000000000000000016141561060c5760405162461bcd60e51b81526004018080602001828103825260328152602001806106516032913960400191505060405180910390fd5b61021b61021b565b6000813f7fc5d2460186f7233c927e7db2dcc703c0e500b653ca82273b7bfad8045d85a47081811480159061064857508115155b94935050505056fe43616e6e6f742063616c6c2066616c6c6261636b2066756e6374696f6e2066726f6d207468652070726f78792061646d696e43616e6e6f742073657420612070726f787920696d706c656d656e746174696f6e20746f2061206e6f6e2d636f6e74726163742061646472657373a2646970667358221220354176803b54436ecdaea6509259ddd412b0447c3107a85e8ae96b5f8424f8e564736f6c63430007060033436f6e747261637420696e7374616e63652068617320616c7265616479206265656e20696e697469616c697a6564a2646970667358221220d3fab427a416a618d88d1cf774d8cf72fef08c85769537cb2f29af2b64d1d27964736f6c63430007060033",
  "linkReferences": {},
  "deployedLinkReferences": {}
}