{
  "_format": "hh-sol-artifact-1",
  "contractName": "MasterChef",
  "sourceName": "contracts/staking/MasterChef.sol",
  "abi": [
    {
      "inputs": [
        {
          "internalType": "uint128[]",
          "name": "_startTimeOffset",
          "type": "uint128[]"
        },
        {
          "internalType": "uint128[]",
          "name": "_rewardsPerSecond",
          "type": "uint128[]"
        },
        {
          "internalType": "address",
          "name": "_poolConfigurator",
          "type": "address"
        },
        {
          "internalType": "contract IMultiFeeDistribution",
          "name": "_rewardMinter",
          "type": "address"
        },
        {
          "internalType": "uint256",
          "name": "_maxMintable",
          "type": "uint256"
        },
        {
          "internalType": "uint256",
          "name": "_startTime",
          "type": "uint256"
        }
      ],
      "stateMutability": "nonpayable",
      "type": "constructor"
    },
    {
      "anonymous": false,
      "inputs": [
        {
          "indexed": true,
          "internalType": "address",
          "name": "token",
          "type": "address"
        },
        {
          "indexed": true,
          "internalType": "address",
          "name": "user",
          "type": "address"
        },
        {
          "indexed": false,
          "internalType": "uint256",
          "name": "amount",
          "type": "uint256"
        }
      ],
      "name": "Deposit",
      "type": "event"
    },
    {
      "anonymous": false,
      "inputs": [
        {
          "indexed": true,
          "internalType": "address",
          "name": "token",
          "type": "address"
        },
        {
          "indexed": true,
          "internalType": "address",
          "name": "user",
          "type": "address"
        },
        {
          "indexed": false,
          "internalType": "uint256",
          "name": "amount",
          "type": "uint256"
        }
      ],
      "name": "EmergencyWithdraw",
      "type": "event"
    },
    {
      "anonymous": false,
      "inputs": [
        {
          "indexed": true,
          "internalType": "address",
          "name": "previousOwner",
          "type": "address"
        },
        {
          "indexed": true,
          "internalType": "address",
          "name": "newOwner",
          "type": "address"
        }
      ],
      "name": "OwnershipTransferred",
      "type": "event"
    },
    {
      "anonymous": false,
      "inputs": [
        {
          "indexed": true,
          "internalType": "address",
          "name": "token",
          "type": "address"
        },
        {
          "indexed": true,
          "internalType": "address",
          "name": "user",
          "type": "address"
        },
        {
          "indexed": false,
          "internalType": "uint256",
          "name": "amount",
          "type": "uint256"
        }
      ],
      "name": "Withdraw",
      "type": "event"
    },
    {
      "inputs": [
        {
          "internalType": "address",
          "name": "_token",
          "type": "address"
        },
        {
          "internalType": "uint256",
          "name": "_allocPoint",
          "type": "uint256"
        }
      ],
      "name": "addPool",
      "outputs": [],
      "stateMutability": "nonpayable",
      "type": "function"
    },
    {
      "inputs": [
        {
          "internalType": "address[]",
          "name": "_tokens",
          "type": "address[]"
        },
        {
          "internalType": "uint256[]",
          "name": "_allocPoints",
          "type": "uint256[]"
        }
      ],
      "name": "batchUpdateAllocPoint",
      "outputs": [],
      "stateMutability": "nonpayable",
      "type": "function"
    },
    {
      "inputs": [
        {
          "internalType": "address",
          "name": "_user",
          "type": "address"
        },
        {
          "internalType": "address[]",
          "name": "_tokens",
          "type": "address[]"
        }
      ],
      "name": "claim",
      "outputs": [],
      "stateMutability": "nonpayable",
      "type": "function"
    },
    {
      "inputs": [
        {
          "internalType": "address",
          "name": "",
          "type": "address"
        }
      ],
      "name": "claimReceiver",
      "outputs": [
        {
          "internalType": "address",
          "name": "",
          "type": "address"
        }
      ],
      "stateMutability": "view",
      "type": "function"
    },
    {
      "inputs": [
        {
          "internalType": "address",
          "name": "_user",
          "type": "address"
        },
        {
          "internalType": "address[]",
          "name": "_tokens",
          "type": "address[]"
        }
      ],
      "name": "claimableReward",
      "outputs": [
        {
          "internalType": "uint256[]",
          "name": "",
          "type": "uint256[]"
        }
      ],
      "stateMutability": "view",
      "type": "function"
    },
    {
      "inputs": [
        {
          "internalType": "address",
          "name": "_token",
          "type": "address"
        },
        {
          "internalType": "uint256",
          "name": "_amount",
          "type": "uint256"
        }
      ],
      "name": "deposit",
      "outputs": [],
      "stateMutability": "nonpayable",
      "type": "function"
    },
    {
      "inputs": [
        {
          "internalType": "address",
          "name": "_token",
          "type": "address"
        }
      ],
      "name": "emergencyWithdraw",
      "outputs": [],
      "stateMutability": "nonpayable",
      "type": "function"
    },
    {
      "inputs": [
        {
          "internalType": "uint256",
          "name": "",
          "type": "uint256"
        }
      ],
      "name": "emissionSchedule",
      "outputs": [
        {
          "internalType": "uint128",
          "name": "startTimeOffset",
          "type": "uint128"
        },
        {
          "internalType": "uint128",
          "name": "rewardsPerSecond",
          "type": "uint128"
        }
      ],
      "stateMutability": "view",
      "type": "function"
    },
    {
      "inputs": [],
      "name": "maxMintableTokens",
      "outputs": [
        {
          "internalType": "uint256",
          "name": "",
          "type": "uint256"
        }
      ],
      "stateMutability": "view",
      "type": "function"
    },
    {
      "inputs": [],
      "name": "mintedTokens",
      "outputs": [
        {
          "internalType": "uint256",
          "name": "",
          "type": "uint256"
        }
      ],
      "stateMutability": "view",
      "type": "function"
    },
    {
      "inputs": [],
      "name": "owner",
      "outputs": [
        {
          "internalType": "address",
          "name": "",
          "type": "address"
        }
      ],
      "stateMutability": "view",
      "type": "function"
    },
    {
      "inputs": [],
      "name": "poolConfigurator",
      "outputs": [
        {
          "internalType": "address",
          "name": "",
          "type": "address"
        }
      ],
      "stateMutability": "view",
      "type": "function"
    },
    {
      "inputs": [
        {
          "internalType": "address",
          "name": "",
          "type": "address"
        }
      ],
      "name": "poolInfo",
      "outputs": [
        {
          "internalType": "uint256",
          "name": "allocPoint",
          "type": "uint256"
        },
        {
          "internalType": "uint256",
          "name": "lastRewardTime",
          "type": "uint256"
        },
        {
          "internalType": "uint256",
          "name": "accRewardPerShare",
          "type": "uint256"
        },
        {
          "internalType": "contract IOnwardIncentivesController",
          "name": "onwardIncentives",
          "type": "address"
        }
      ],
      "stateMutability": "view",
      "type": "function"
    },
    {
      "inputs": [],
      "name": "poolLength",
      "outputs": [
        {
          "internalType": "uint256",
          "name": "",
          "type": "uint256"
        }
      ],
      "stateMutability": "view",
      "type": "function"
    },
    {
      "inputs": [
        {
          "internalType": "uint256",
          "name": "",
          "type": "uint256"
        }
      ],
      "name": "registeredTokens",
      "outputs": [
        {
          "internalType": "address",
          "name": "",
          "type": "address"
        }
      ],
      "stateMutability": "view",
      "type": "function"
    },
    {
      "inputs": [],
      "name": "renounceOwnership",
      "outputs": [],
      "stateMutability": "nonpayable",
      "type": "function"
    },
    {
      "inputs": [],
      "name": "rewardMinter",
      "outputs": [
        {
          "internalType": "contract IMultiFeeDistribution",
          "name": "",
          "type": "address"
        }
      ],
      "stateMutability": "view",
      "type": "function"
    },
    {
      "inputs": [],
      "name": "rewardsPerSecond",
      "outputs": [
        {
          "internalType": "uint256",
          "name": "",
          "type": "uint256"
        }
      ],
      "stateMutability": "view",
      "type": "function"
    },
    {
      "inputs": [
        {
          "internalType": "address",
          "name": "_user",
          "type": "address"
        },
        {
          "internalType": "address",
          "name": "_receiver",
          "type": "address"
        }
      ],
      "name": "setClaimReceiver",
      "outputs": [],
      "stateMutability": "nonpayable",
      "type": "function"
    },
    {
      "inputs": [
        {
          "internalType": "address",
          "name": "_token",
          "type": "address"
        },
        {
          "internalType": "contract IOnwardIncentivesController",
          "name": "_incentives",
          "type": "address"
        }
      ],
      "name": "setOnwardIncentives",
      "outputs": [],
      "stateMutability": "nonpayable",
      "type": "function"
    },
    {
      "inputs": [],
      "name": "startTime",
      "outputs": [
        {
          "internalType": "uint256",
          "name": "",
          "type": "uint256"
        }
      ],
      "stateMutability": "view",
      "type": "function"
    },
    {
      "inputs": [],
      "name": "totalAllocPoint",
      "outputs": [
        {
          "internalType": "uint256",
          "name": "",
          "type": "uint256"
        }
      ],
      "stateMutability": "view",
      "type": "function"
    },
    {
      "inputs": [
        {
          "internalType": "address",
          "name": "newOwner",
          "type": "address"
        }
      ],
      "name": "transferOwnership",
      "outputs": [],
      "stateMutability": "nonpayable",
      "type": "function"
    },
    {
      "inputs": [
        {
          "internalType": "address",
          "name": "",
          "type": "address"
        }
      ],
      "name": "userBaseClaimable",
      "outputs": [
        {
          "internalType": "uint256",
          "name": "",
          "type": "uint256"
        }
      ],
      "stateMutability": "view",
      "type": "function"
    },
    {
      "inputs": [
        {
          "internalType": "address",
          "name": "",
          "type": "address"
        },
        {
          "internalType": "address",
          "name": "",
          "type": "address"
        }
      ],
      "name": "userInfo",
      "outputs": [
        {
          "internalType": "uint256",
          "name": "amount",
          "type": "uint256"
        },
        {
          "internalType": "uint256",
          "name": "rewardDebt",
          "type": "uint256"
        }
      ],
      "stateMutability": "view",
      "type": "function"
    },
    {
      "inputs": [
        {
          "internalType": "address",
          "name": "_token",
          "type": "address"
        },
        {
          "internalType": "uint256",
          "name": "_amount",
          "type": "uint256"
        }
      ],
      "name": "withdraw",
      "outputs": [],
      "stateMutability": "nonpayable",
      "type": "function"
    }
  ],
  "bytecode": "0x60c06040526000600a553480156200001657600080fd5b50604051620022f5380380620022f5833981810160405260c08110156200003c57600080fd5b81019080805160405193929190846401000000008211156200005d57600080fd5b9083019060208201858111156200007357600080fd5b82518660208202830111640100000000821117156200009157600080fd5b82525081516020918201928201910280838360005b83811015620000c0578181015183820152602001620000a6565b5050505090500160405260200180516040519392919084640100000000821115620000ea57600080fd5b9083019060208201858111156200010057600080fd5b82518660208202830111640100000000821117156200011e57600080fd5b82525081516020918201928201910280838360005b838110156200014d57818101518382015260200162000133565b50505050919091016040908152602083015190830151606084015160809094015191955093509050600062000181620002c2565b600080546001600160a01b0319166001600160a01b0383169081178255604051929350917f8be0079c531659141344cd1fd0a4f28419497f9722a3daafe3b4186f6b6457e0908290a350600180546001600160a01b038087166001600160a01b0319928316179092556002805492861692909116919091179055855160001981015b6001810115620002ac57600760405180604001604052808a84815181106200022757fe5b60200260200101516001600160801b031681526020018984815181106200024a57fe5b6020908102919091018101516001600160801b03908116909252835460018101855560009485529381902083519401805493909101518216600160801b029382166001600160801b031990931692909217169190911790556000190162000203565b505060809190915260a05250620002c692505050565b3390565b60805160a051611ff7620002fe60003980610e8452806116de52806117605250806106cc5280611b355280611b695250611ff76000f3fe608060405234801561001057600080fd5b506004361061018e5760003560e01c80638da5cb5b116100de578063cd1a4d8611610097578063e5b5349811610071578063e5b5349814610572578063eacdaabc14610640578063f2fde38b14610648578063f3fef3a31461066e5761018e565b8063cd1a4d8614610516578063de7e410c14610544578063e20c5a8a1461054c5761018e565b80638da5cb5b146103d45780638e2eba09146103f85780639a0ba2ea146104765780639a7b5f11146104935780639b8e5563146104e8578063bfccff45146104f05761018e565b8063334d0bbd1161014b5780636ff1c9bc116101255780636ff1c9bc14610396578063715018a6146103bc57806378e97925146103c45780638d75fe05146103cc5761018e565b8063334d0bbd1461026057806334c54230146102ac57806347e7ef241461036a5761018e565b8063081e3eda146101935780630f208beb146101ad57806317caf6f1146101f45780631a848e01146101fc57806332a9caba146102045780633328756414610232575b600080fd5b61019b61069a565b60408051918252519081900360200190f35b6101db600480360360408110156101c357600080fd5b506001600160a01b03813581169160200135166106a0565b6040805192835260208301919091528051918290030190f35b61019b6106c4565b61019b6106ca565b6102306004803603604081101561021a57600080fd5b506001600160a01b0381351690602001356106ee565b005b6102306004803603604081101561024857600080fd5b506001600160a01b0381358116916020013516610827565b61027d6004803603602081101561027657600080fd5b503561088d565b60405180836001600160801b03168152602001826001600160801b031681526020019250505060405180910390f35b610230600480360360408110156102c257600080fd5b810190602081018135600160201b8111156102dc57600080fd5b8201836020820111156102ee57600080fd5b803590602001918460208302840111600160201b8311171561030f57600080fd5b919390929091602081019035600160201b81111561032c57600080fd5b82018360208201111561033e57600080fd5b803590602001918460208302840111600160201b8311171561035f57600080fd5b5090925090506108c2565b6102306004803603604081101561038057600080fd5b506001600160a01b0381351690602001356109f0565b610230600480360360208110156103ac57600080fd5b50356001600160a01b0316610c4c565b610230610de0565b61019b610e82565b61019b610ea6565b6103dc610eac565b604080516001600160a01b039092168252519081900360200190f35b6102306004803603604081101561040e57600080fd5b6001600160a01b038235169190810190604081016020820135600160201b81111561043857600080fd5b82018360208201111561044a57600080fd5b803590602001918460208302840111600160201b8311171561046b57600080fd5b509092509050610ebb565b6103dc6004803603602081101561048c57600080fd5b503561100f565b6104b9600480360360208110156104a957600080fd5b50356001600160a01b0316611039565b604080519485526020850193909352838301919091526001600160a01b03166060830152519081900360800190f35b6103dc611069565b61019b6004803603602081101561050657600080fd5b50356001600160a01b0316611078565b6102306004803603604081101561052c57600080fd5b506001600160a01b038135811691602001351661108a565b6103dc611138565b6103dc6004803603602081101561056257600080fd5b50356001600160a01b0316611147565b6105f06004803603604081101561058857600080fd5b6001600160a01b038235169190810190604081016020820135600160201b8111156105b257600080fd5b8201836020820111156105c457600080fd5b803590602001918460208302840111600160201b831117156105e557600080fd5b509092509050611162565b60408051602080825283518183015283519192839290830191858101910280838360005b8381101561062c578181015183820152602001610614565b505050509050019250505060405180910390f35b61019b611345565b6102306004803603602081101561065e57600080fd5b50356001600160a01b031661134b565b6102306004803603604081101561068457600080fd5b506001600160a01b038135169060200135611443565b60055490565b60086020908152600092835260408084209091529082529020805460019091015482565b600a5481565b7f000000000000000000000000000000000000000000000000000000000000000081565b6106f66116d5565b6000546001600160a01b03908116911614610746576040805162461bcd60e51b81526020600482018190526024820152600080516020611f78833981519152604482015290519081900360640190fd5b6001600160a01b0382166000908152600660205260409020600101541561076c57600080fd5b6107746116d9565b600a5461078190826117cc565b600a556005805460018181019092557f036b6384b5eca791c62761152d0c79bb0604c104a5fb6f4eb0703f3154bb3db00180546001600160a01b039485166001600160a01b0319918216811790925560408051608081018252948552426020868101918252600087840181815260608901828152968252600690925292909220955186555193850193909355915160028401555160039092018054929093169116179055565b336001600160a01b03831614806108565750610841610eac565b6001600160a01b0316336001600160a01b0316145b61085f57600080fd5b6001600160a01b039182166000908152600b6020526040902080546001600160a01b03191691909216179055565b6007818154811061089d57600080fd5b6000918252602090912001546001600160801b038082169250600160801b9091041682565b6108ca6116d5565b6000546001600160a01b0390811691161461091a576040805162461bcd60e51b81526020600482018190526024820152600080516020611f78833981519152604482015290519081900360640190fd5b82811461092657600080fd5b61092e61182f565b600a5460005b848110156109e65760006006600088888581811061094e57fe5b905060200201356001600160a01b03166001600160a01b03166001600160a01b031681526020019081526020016000209050600081600101541161099157600080fd5b6109c48585848181106109a057fe5b905060200201356109be83600001548661187890919063ffffffff16565b906117cc565b92508484838181106109d257fe5b602002919091013590915550600101610934565b50600a5550505050565b6001600160a01b03821660009081526006602052604090206001810154610a1657600080fd5b610a1e6116d9565b610a2a83600a546118ba565b6001600160a01b03831660009081526008602090815260408083203384529091529020805460028301548115610aba576001830154600090610a8590610a7f64e8d4a51000610a7987876119e9565b90611a42565b90611878565b90508015610ab85733600090815260096020526040902054610aa790826117cc565b336000908152600960205260409020555b505b610acf6001600160a01b038716333088611a84565b610ad982866117cc565b8084559150610af164e8d4a51000610a7984846119e9565b600184015560038401546001600160a01b031615610c04576000866001600160a01b03166370a08231306040518263ffffffff1660e01b815260040180826001600160a01b0316815260200191505060206040518083038186803b158015610b5857600080fd5b505afa158015610b6c573d6000803e3d6000fd5b505050506040513d6020811015610b8257600080fd5b505160038601546040805163ae0b537160e01b81526001600160a01b038b811660048301523360248301526044820188905260648201859052915193945091169163ae0b53719160848082019260009290919082900301818387803b158015610bea57600080fd5b505af1158015610bfe573d6000803e3d6000fd5b50505050505b60408051868152905133916001600160a01b038916917f5548c837ab068cf56a2c2479df0882a4922fd203edb7517321831d95078c5f629181900360200190a3505050505050565b6001600160a01b038116600081815260066020908152604080832060088352818420338086529352922080549293909291610c88919083611ade565b60408051828152905133916001600160a01b038716917ff24ef89f38eadc1bde50701ad6e4d6d11a2dc24f7cf834a486991f38833285049181900360200190a36000808355600183015560038301546001600160a01b031615610dda576000846001600160a01b03166370a08231306040518263ffffffff1660e01b815260040180826001600160a01b0316815260200191505060206040518083038186803b158015610d3457600080fd5b505afa158015610d48573d6000803e3d6000fd5b505050506040513d6020811015610d5e57600080fd5b505160038501546040805163ae0b537160e01b81526001600160a01b0389811660048301523360248301526000604483018190526064830186905292519495509092169263ae0b537192608480820193929182900301818387803b158015610dc557600080fd5b505af1925050508015610dd6575060015b505b505b50505050565b610de86116d5565b6000546001600160a01b03908116911614610e38576040805162461bcd60e51b81526020600482018190526024820152600080516020611f78833981519152604482015290519081900360640190fd5b600080546040516001600160a01b03909116907f8be0079c531659141344cd1fd0a4f28419497f9722a3daafe3b4186f6b6457e0908390a3600080546001600160a01b0319169055565b7f000000000000000000000000000000000000000000000000000000000000000081565b60045481565b6000546001600160a01b031690565b610ec36116d9565b6001600160a01b0383166000908152600960205260408120805490829055600a5490915b8381101561100457600060066000878785818110610f0157fe5b905060200201356001600160a01b03166001600160a01b03166001600160a01b0316815260200190815260200160002090506000816001015411610f4457600080fd5b610f69868684818110610f5357fe5b905060200201356001600160a01b0316846118ba565b600060086000888886818110610f7b57fe5b6001600160a01b036020918202939093013583168452838101949094525060409182016000908120918c1681529252812060028401548154919350610fcb9164e8d4a5100091610a7991906119e9565b9050610fee610fe783600101548361187890919063ffffffff16565b87906117cc565b6001928301919091559450919091019050610ee7565b50610dd88583611b30565b6005818154811061101f57600080fd5b6000918252602090912001546001600160a01b0316905081565b6006602052600090815260409020805460018201546002830154600390930154919290916001600160a01b031684565b6002546001600160a01b031681565b60096020526000908152604090205481565b6110926116d5565b6000546001600160a01b039081169116146110e2576040805162461bcd60e51b81526020600482018190526024820152600080516020611f78833981519152604482015290519081900360640190fd5b6001600160a01b03821660009081526006602052604090206001015461110757600080fd5b6001600160a01b03918216600090815260066020526040902060030180546001600160a01b03191691909216179055565b6001546001600160a01b031681565b600b602052600090815260409020546001600160a01b031681565b606060008267ffffffffffffffff8111801561117d57600080fd5b506040519080825280602002602001820160405280156111a7578160200160208202803683370190505b50905060005b8381101561133c5760008585838181106111c357fe5b6001600160a01b03602091820293909301358316600081815260068352604080822060088552818320968e168352958452808220600287015482516370a0823160e01b8152306004820152925194985090955093919287926370a082319260248082019391829003018186803b15801561123c57600080fd5b505afa158015611250573d6000803e3d6000fd5b505050506040513d602081101561126657600080fd5b505160018501549091504211801561127d57508015155b156112ec57600061129b85600101544261187890919063ffffffff16565b905060006112c8600a54610a7988600001546112c2600354876119e990919063ffffffff16565b906119e9565b90506112e76112e084610a798464e8d4a510006119e9565b85906117cc565b935050505b6113148360010154610a7f64e8d4a51000610a798688600001546119e990919063ffffffff16565b87878151811061132057fe5b60209081029190910101525050600190930192506111ad915050565b50949350505050565b60035481565b6113536116d5565b6000546001600160a01b039081169116146113a3576040805162461bcd60e51b81526020600482018190526024820152600080516020611f78833981519152604482015290519081900360640190fd5b6001600160a01b0381166113e85760405162461bcd60e51b8152600401808060200182810382526026815260200180611f316026913960400191505060405180910390fd5b600080546040516001600160a01b03808516939216917f8be0079c531659141344cd1fd0a4f28419497f9722a3daafe3b4186f6b6457e091a3600080546001600160a01b0319166001600160a01b0392909216919091179055565b6001600160a01b0382166000908152600660205260409020600181015461146957600080fd5b6001600160a01b038316600090815260086020908152604080832033845290915290208054838110156114d8576040805162461bcd60e51b81526020600482015260126024820152711dda5d1a191c985dce881b9bdd0819dbdbd960721b604482015290519081900360640190fd5b6114e06116d9565b6114ec85600a546118ba565b6002830154600183015460009061151090610a7f64e8d4a51000610a7987876119e9565b90508015611543573360009081526009602052604090205461153290826117cc565b336000908152600960205260409020555b61154d8387611878565b808555925061156564e8d4a51000610a7985856119e9565b600185015561157e6001600160a01b0388163388611ade565b60038501546001600160a01b03161561168c576000876001600160a01b03166370a08231306040518263ffffffff1660e01b815260040180826001600160a01b0316815260200191505060206040518083038186803b1580156115e057600080fd5b505afa1580156115f4573d6000803e3d6000fd5b505050506040513d602081101561160a57600080fd5b505160038701546040805163ae0b537160e01b81526001600160a01b038c811660048301523360248301526044820189905260648201859052915193945091169163ae0b53719160848082019260009290919082900301818387803b15801561167257600080fd5b505af1158015611686573d6000803e3d6000fd5b50505050505b60408051878152905133916001600160a01b038a16917f9b1bfa7fa9ee420a16e124f794c35ac9f90472acc99140eb2f6447c714cad8eb9181900360200190a350505050505050565b3390565b6007547f00000000000000000000000000000000000000000000000000000000000000004211801561170b5750600081115b156117c95760006007600183038154811061172257fe5b6000918252602091829020604080518082019091529101546001600160801b03808216808452600160801b90920416928201929092529150611784427f0000000000000000000000000000000000000000000000000000000000000000611878565b11156117c75761179261182f565b60208101516001600160801b031660035560078054806117ae57fe5b6000828152602081208201600019908101919091550190555b505b50565b600082820183811015611826576040805162461bcd60e51b815260206004820152601b60248201527f536166654d6174683a206164646974696f6e206f766572666c6f770000000000604482015290519081900360640190fd5b90505b92915050565b600a5460055460005b818110156118735761186b6005828154811061185057fe5b6000918252602090912001546001600160a01b0316846118ba565b600101611838565b505050565b600061182683836040518060400160405280601e81526020017f536166654d6174683a207375627472616374696f6e206f766572666c6f770000815250611c41565b6001600160a01b0382166000908152600660205260409020600181015442116118e357506117c7565b6000836001600160a01b03166370a08231306040518263ffffffff1660e01b815260040180826001600160a01b0316815260200191505060206040518083038186803b15801561193257600080fd5b505afa158015611946573d6000803e3d6000fd5b505050506040513d602081101561195c57600080fd5b50519050806119725750426001909101556117c7565b600061198b83600101544261187890919063ffffffff16565b905060006119b085610a7986600001546112c2600354876119e990919063ffffffff16565b90506119d36119c884610a798464e8d4a510006119e9565b6002860154906117cc565b6002850155505042600190920191909155505050565b6000826119f857506000611829565b82820282848281611a0557fe5b04146118265760405162461bcd60e51b8152600401808060200182810382526021815260200180611f576021913960400191505060405180910390fd5b600061182683836040518060400160405280601a81526020017f536166654d6174683a206469766973696f6e206279207a65726f000000000000815250611cd8565b604080516001600160a01b0380861660248301528416604482015260648082018490528251808303909101815260849091019091526020810180516001600160e01b03166323b872dd60e01b179052610dda908590611d3d565b604080516001600160a01b038416602482015260448082018490528251808303909101815260649091019091526020810180516001600160e01b031663a9059cbb60e01b179052611873908490611d3d565b6004547f0000000000000000000000000000000000000000000000000000000000000000611b5e82846117cc565b1115611b9157611b8e7f000000000000000000000000000000000000000000000000000000000000000082611878565b91505b811561187357611ba181836117cc565b6004556001600160a01b038084166000908152600b60205260409020541680611bc75750825b600254604080516334686fad60e21b81526001600160a01b03848116600483015260248201879052600160448301529151919092169163d1a1beb491606480830192600092919082900301818387803b158015611c2357600080fd5b505af1158015611c37573d6000803e3d6000fd5b5050505050505050565b60008184841115611cd05760405162461bcd60e51b81526004018080602001828103825283818151815260200191508051906020019080838360005b83811015611c95578181015183820152602001611c7d565b50505050905090810190601f168015611cc25780820380516001836020036101000a031916815260200191505b509250505060405180910390fd5b505050900390565b60008183611d275760405162461bcd60e51b8152602060048201818152835160248401528351909283926044909101919085019080838360008315611c95578181015183820152602001611c7d565b506000838581611d3357fe5b0495945050505050565b611d4f826001600160a01b0316611ef4565b611da0576040805162461bcd60e51b815260206004820152601f60248201527f5361666545524332303a2063616c6c20746f206e6f6e2d636f6e747261637400604482015290519081900360640190fd5b600080836001600160a01b0316836040518082805190602001908083835b60208310611ddd5780518252601f199092019160209182019101611dbe565b6001836020036101000a0380198251168184511680821785525050505050509050019150506000604051808303816000865af19150503d8060008114611e3f576040519150601f19603f3d011682016040523d82523d6000602084013e611e44565b606091505b509150915081611e9b576040805162461bcd60e51b815260206004820181905260248201527f5361666545524332303a206c6f772d6c6576656c2063616c6c206661696c6564604482015290519081900360640190fd5b805115610dda57808060200190516020811015611eb757600080fd5b5051610dda5760405162461bcd60e51b815260040180806020018281038252602a815260200180611f98602a913960400191505060405180910390fd5b6000813f7fc5d2460186f7233c927e7db2dcc703c0e500b653ca82273b7bfad8045d85a470818114801590611f2857508115155b94935050505056fe4f776e61626c653a206e6577206f776e657220697320746865207a65726f2061646472657373536166654d6174683a206d756c7469706c69636174696f6e206f766572666c6f774f776e61626c653a2063616c6c6572206973206e6f7420746865206f776e65725361666545524332303a204552433230206f7065726174696f6e20646964206e6f742073756363656564a26469706673582212209a430baf97da36468ab5560874dddb39c662fcdfa79cdfa152c917892925e64f64736f6c63430007060033",
  "linkReferences": {},
  "deployedLinkReferences": {}
}