{
  "_format": "hh-sol-artifact-1",
  "contractName": "MerkleDistributor",
  "sourceName": "contracts/staking/MerkleDistributor.sol",
  "abi": [
    {
      "inputs": [
        {
          "internalType": "contract IMultiFeeDistribution",
          "name": "_rewardMinter",
          "type": "address"
        },
        {
          "internalType": "uint256",
          "name": "_maxMintable",
          "type": "uint256"
        }
      ],
      "stateMutability": "nonpayable",
      "type": "constructor"
    },
    {
      "anonymous": false,
      "inputs": [
        {
          "indexed": true,
          "internalType": "address",
          "name": "account",
          "type": "address"
        },
        {
          "indexed": true,
          "internalType": "uint256",
          "name": "merkleIndex",
          "type": "uint256"
        },
        {
          "indexed": false,
          "internalType": "uint256",
          "name": "index",
          "type": "uint256"
        },
        {
          "indexed": false,
          "internalType": "uint256",
          "name": "amount",
          "type": "uint256"
        },
        {
          "indexed": false,
          "internalType": "address",
          "name": "receiver",
          "type": "address"
        }
      ],
      "name": "Claimed",
      "type": "event"
    },
    {
      "anonymous": false,
      "inputs": [
        {
          "indexed": true,
          "internalType": "address",
          "name": "previousOwner",
          "type": "address"
        },
        {
          "indexed": true,
          "internalType": "address",
          "name": "newOwner",
          "type": "address"
        }
      ],
      "name": "OwnershipTransferred",
      "type": "event"
    },
    {
      "inputs": [
        {
          "internalType": "bytes32",
          "name": "_root",
          "type": "bytes32"
        },
        {
          "internalType": "uint256",
          "name": "_duration",
          "type": "uint256"
        },
        {
          "internalType": "uint256",
          "name": "_total",
          "type": "uint256"
        }
      ],
      "name": "addClaimRecord",
      "outputs": [],
      "stateMutability": "nonpayable",
      "type": "function"
    },
    {
      "inputs": [
        {
          "internalType": "uint256",
          "name": "_claimIndex",
          "type": "uint256"
        },
        {
          "internalType": "uint256",
          "name": "_index",
          "type": "uint256"
        },
        {
          "internalType": "uint256",
          "name": "_amount",
          "type": "uint256"
        },
        {
          "internalType": "address",
          "name": "_receiver",
          "type": "address"
        },
        {
          "internalType": "bytes32[]",
          "name": "_merkleProof",
          "type": "bytes32[]"
        }
      ],
      "name": "claim",
      "outputs": [],
      "stateMutability": "nonpayable",
      "type": "function"
    },
    {
      "inputs": [
        {
          "internalType": "uint256",
          "name": "",
          "type": "uint256"
        }
      ],
      "name": "claims",
      "outputs": [
        {
          "internalType": "bytes32",
          "name": "merkleRoot",
          "type": "bytes32"
        },
        {
          "internalType": "uint256",
          "name": "validUntil",
          "type": "uint256"
        },
        {
          "internalType": "uint256",
          "name": "total",
          "type": "uint256"
        },
        {
          "internalType": "uint256",
          "name": "claimed",
          "type": "uint256"
        }
      ],
      "stateMutability": "view",
      "type": "function"
    },
    {
      "inputs": [],
      "name": "duration",
      "outputs": [
        {
          "internalType": "uint256",
          "name": "",
          "type": "uint256"
        }
      ],
      "stateMutability": "view",
      "type": "function"
    },
    {
      "inputs": [
        {
          "internalType": "uint256",
          "name": "_claimIndex",
          "type": "uint256"
        },
        {
          "internalType": "uint256",
          "name": "_index",
          "type": "uint256"
        }
      ],
      "name": "isClaimed",
      "outputs": [
        {
          "internalType": "bool",
          "name": "",
          "type": "bool"
        }
      ],
      "stateMutability": "view",
      "type": "function"
    },
    {
      "inputs": [],
      "name": "maxMintableTokens",
      "outputs": [
        {
          "internalType": "uint256",
          "name": "",
          "type": "uint256"
        }
      ],
      "stateMutability": "view",
      "type": "function"
    },
    {
      "inputs": [],
      "name": "minDuration",
      "outputs": [
        {
          "internalType": "uint256",
          "name": "",
          "type": "uint256"
        }
      ],
      "stateMutability": "view",
      "type": "function"
    },
    {
      "inputs": [],
      "name": "mintableBalance",
      "outputs": [
        {
          "internalType": "uint256",
          "name": "",
          "type": "uint256"
        }
      ],
      "stateMutability": "view",
      "type": "function"
    },
    {
      "inputs": [],
      "name": "mintedTokens",
      "outputs": [
        {
          "internalType": "uint256",
          "name": "",
          "type": "uint256"
        }
      ],
      "stateMutability": "view",
      "type": "function"
    },
    {
      "inputs": [],
      "name": "owner",
      "outputs": [
        {
          "internalType": "address",
          "name": "",
          "type": "address"
        }
      ],
      "stateMutability": "view",
      "type": "function"
    },
    {
      "inputs": [
        {
          "internalType": "uint256[]",
          "name": "_claimIndexes",
          "type": "uint256[]"
        }
      ],
      "name": "releaseExpiredClaimReserves",
      "outputs": [],
      "stateMutability": "nonpayable",
      "type": "function"
    },
    {
      "inputs": [],
      "name": "renounceOwnership",
      "outputs": [],
      "stateMutability": "nonpayable",
      "type": "function"
    },
    {
      "inputs": [],
      "name": "reservedTokens",
      "outputs": [
        {
          "internalType": "uint256",
          "name": "",
          "type": "uint256"
        }
      ],
      "stateMutability": "view",
      "type": "function"
    },
    {
      "inputs": [],
      "name": "rewardMinter",
      "outputs": [
        {
          "internalType": "contract IMultiFeeDistribution",
          "name": "",
          "type": "address"
        }
      ],
      "stateMutability": "view",
      "type": "function"
    },
    {
      "inputs": [],
      "name": "startTime",
      "outputs": [
        {
          "internalType": "uint256",
          "name": "",
          "type": "uint256"
        }
      ],
      "stateMutability": "view",
      "type": "function"
    },
    {
      "inputs": [
        {
          "internalType": "address",
          "name": "newOwner",
          "type": "address"
        }
      ],
      "name": "transferOwnership",
      "outputs": [],
      "stateMutability": "nonpayable",
      "type": "function"
    }
  ],
  "bytecode": "0x60c060405234801561001057600080fd5b506040516110f33803806110f38339818101604052604081101561003357600080fd5b50805160209091015160006100466100bd565b600080546001600160a01b0319166001600160a01b0383169081178255604051929350917f8be0079c531659141344cd1fd0a4f28419497f9722a3daafe3b4186f6b6457e0908290a350600380546001600160a01b0319166001600160a01b0393909316929092179091556080524260a0526100c1565b3390565b60805160a0516110056100ee6000398061038a52806109ca52508061035f52806103dd52506110056000f3fe608060405234801561001057600080fd5b50600436106101005760003560e01c806378b68d84116100975780639b8e5563116100665780639b8e5563146102a7578063a888c2cd146102af578063f2fde38b146102f2578063f364c90c1461031857610100565b806378b68d841461020357806378e97925146102735780638d75fe051461027b5780638da5cb5b1461028357610100565b806356715761116100d3578063567157611461013757806366dfbc561461013f578063715018a61461016a57806373cf8b531461017257610100565b80630fb5a6b41461010557806315a553471461011f5780631a848e011461012757806331ed9d5d1461012f575b600080fd5b61010d61034f565b60408051918252519081900360200190f35b61010d610357565b61010d61035d565b61010d610381565b61010d61041c565b6101686004803603606081101561015557600080fd5b5080359060208101359060400135610423565b005b61016861059e565b610168600480360360a081101561018857600080fd5b8135916020810135916040820135916001600160a01b036060820135169181019060a0810160808201356401000000008111156101c457600080fd5b8201836020820111156101d657600080fd5b803590602001918460208302840111640100000000831117156101f857600080fd5b509092509050610652565b6101686004803603602081101561021957600080fd5b81019060208101813564010000000081111561023457600080fd5b82018360208201111561024657600080fd5b8035906020019184602083028401116401000000008311171561026857600080fd5b509092509050610903565b61010d6109c8565b61010d6109ec565b61028b6109f2565b604080516001600160a01b039092168252519081900360200190f35b61028b610a01565b6102cc600480360360208110156102c557600080fd5b5035610a10565b604080519485526020850193909352838301919091526060830152519081900360800190f35b6101686004803603602081101561030857600080fd5b50356001600160a01b0316610a4a565b61033b6004803603604081101561032e57600080fd5b5080359060200135610b54565b604080519115158252519081900360200190f35b6301e1338081565b60025481565b7f000000000000000000000000000000000000000000000000000000000000000081565b6000806103ae427f0000000000000000000000000000000000000000000000000000000000000000610b84565b90506301e133808111156103c357506301e133805b6104166002546104106001546104106301e1338061040a877f0000000000000000000000000000000000000000000000000000000000000000610bcd90919063ffffffff16565b90610c26565b90610b84565b91505090565b62093a8081565b61042b610c68565b6000546001600160a01b0390811691161461048d576040805162461bcd60e51b815260206004820181905260248201527f4f776e61626c653a2063616c6c6572206973206e6f7420746865206f776e6572604482015290519081900360640190fd5b62093a8082101561049d57600080fd5b60006104a7610381565b9050818110156104b657600080fd5b604080516080810182528581524285016020820190815291810184815260006060830181815260048054600181018255928190529351919093027f8a35acfbc15ff81a39ae7d344fd709f28e8600b4aa8c65c6b64bfe7fe36bd19b81019190915592517f8a35acfbc15ff81a39ae7d344fd709f28e8600b4aa8c65c6b64bfe7fe36bd19c840155517f8a35acfbc15ff81a39ae7d344fd709f28e8600b4aa8c65c6b64bfe7fe36bd19d830155517f8a35acfbc15ff81a39ae7d344fd709f28e8600b4aa8c65c6b64bfe7fe36bd19e909101556002546105959083610c6c565b60025550505050565b6105a6610c68565b6000546001600160a01b03908116911614610608576040805162461bcd60e51b815260206004820181905260248201527f4f776e61626c653a2063616c6c6572206973206e6f7420746865206f776e6572604482015290519081900360640190fd5b600080546040516001600160a01b03909116907f8be0079c531659141344cd1fd0a4f28419497f9722a3daafe3b4186f6b6457e0908390a3600080546001600160a01b0319169055565b60045486106106925760405162461bcd60e51b8152600401808060200182810382526026815260200180610faa6026913960400191505060405180910390fd5b61069c8686610b54565b156106d85760405162461bcd60e51b8152600401808060200182810382526028815260200180610ef76028913960400191505060405180910390fd5b6000600487815481106106e757fe5b90600052602060002090600402019050428160010154116107395760405162461bcd60e51b8152600401808060200182810382526024815260200180610f866024913960400191505060405180910390fd5b60038101546107489086610c6c565b60038201819055600282015410156107915760405162461bcd60e51b8152600401808060200182810382526034815260200180610e9d6034913960400191505060405180910390fd5b60025461079e9086610b84565b6002556001546107ae9086610c6c565b6001556040805160208082018990523360601b828401526054808301899052835180840390910181526074909201909252805191012081546107f4908590859084610cc6565b61082f5760405162461bcd60e51b8152600401808060200182810382526021815260200180610f446021913960400191505060405180910390fd5b6108398888610d6e565b600354604080516334686fad60e21b81526001600160a01b038881166004830152602482018a9052600160448301529151919092169163d1a1beb491606480830192600092919082900301818387803b15801561089557600080fd5b505af11580156108a9573d6000803e3d6000fd5b5050604080518a8152602081018a90526001600160a01b0389168183015290518b93503392507f98fd277adc04630eb4a4f20f9a1ad2be2b1060312ca017d0f95597bb80ce63f99181900360600190a35050505050505050565b60005b818110156109c3576000600484848481811061091e57fe5b905060200201358154811061092f57fe5b90600052602060002090600402019050806001015442116109815760405162461bcd60e51b8152600401808060200182810382526025815260200180610f1f6025913960400191505060405180910390fd5b6109a861099f82600301548360020154610b8490919063ffffffff16565b60025490610b84565b60029081556000908201819055600390910155600101610906565b505050565b7f000000000000000000000000000000000000000000000000000000000000000081565b60015481565b6000546001600160a01b031690565b6003546001600160a01b031681565b60048181548110610a2057600080fd5b60009182526020909120600490910201805460018201546002830154600390930154919350919084565b610a52610c68565b6000546001600160a01b03908116911614610ab4576040805162461bcd60e51b815260206004820181905260248201527f4f776e61626c653a2063616c6c6572206973206e6f7420746865206f776e6572604482015290519081900360640190fd5b6001600160a01b038116610af95760405162461bcd60e51b8152600401808060200182810382526026815260200180610ed16026913960400191505060405180910390fd5b600080546040516001600160a01b03808516939216917f8be0079c531659141344cd1fd0a4f28419497f9722a3daafe3b4186f6b6457e091a3600080546001600160a01b0319166001600160a01b0392909216919091179055565b600082815260056020908152604080832061010085048452909152902054600160ff83161b908116145b92915050565b6000610bc683836040518060400160405280601e81526020017f536166654d6174683a207375627472616374696f6e206f766572666c6f770000815250610da0565b9392505050565b600082610bdc57506000610b7e565b82820282848281610be957fe5b0414610bc65760405162461bcd60e51b8152600401808060200182810382526021815260200180610f656021913960400191505060405180910390fd5b6000610bc683836040518060400160405280601a81526020017f536166654d6174683a206469766973696f6e206279207a65726f000000000000815250610e37565b3390565b600082820183811015610bc6576040805162461bcd60e51b815260206004820152601b60248201527f536166654d6174683a206164646974696f6e206f766572666c6f770000000000604482015290519081900360640190fd5b600081815b85811015610d62576000878783818110610ce157fe5b905060200201359050808311610d275782816040516020018083815260200182815260200192505050604051602081830303815290604052805190602001209250610d59565b808360405160200180838152602001828152602001925050506040516020818303038152906040528051906020012092505b50600101610ccb565b50909214949350505050565b6000918252600560209081526040808420610100840485529091529091208054600160ff9093169290921b9091179055565b60008184841115610e2f5760405162461bcd60e51b81526004018080602001828103825283818151815260200191508051906020019080838360005b83811015610df4578181015183820152602001610ddc565b50505050905090810190601f168015610e215780820380516001836020036101000a031916815260200191505b509250505060405180910390fd5b505050900390565b60008183610e865760405162461bcd60e51b8152602060048201818152835160248401528351909283926044909101919085019080838360008315610df4578181015183820152602001610ddc565b506000838581610e9257fe5b049594505050505056fe4d65726b6c654469737472696275746f723a204578636565647320616c6c6f636174656420746f74616c20666f722064726f702e4f776e61626c653a206e6577206f776e657220697320746865207a65726f20616464726573734d65726b6c654469737472696275746f723a2044726f7020616c726561647920636c61696d65642e4d65726b6c654469737472696275746f723a2044726f70207374696c6c206163746976652e4d65726b6c654469737472696275746f723a20496e76616c69642070726f6f662e536166654d6174683a206d756c7469706c69636174696f6e206f766572666c6f774d65726b6c654469737472696275746f723a2044726f702068617320657870697265642e4d65726b6c654469737472696275746f723a20496e76616c6964206d65726b6c65496e646578a264697066735822122026dea3a2405c14b8f8c6deb63c43e606ace639cfbb890db88de0a38364a3dbcb64736f6c63430007060033",
  "linkReferences": {},
  "deployedLinkReferences": {}
}