{
  "_format": "hh-sol-artifact-1",
  "contractName": "MultiFeeDistribution",
  "sourceName": "contracts/staking/MultiFeeDistribution.sol",
  "abi": [
    {
      "inputs": [
        {
          "internalType": "address",
          "name": "_stakingToken",
          "type": "address"
        }
      ],
      "stateMutability": "nonpayable",
      "type": "constructor"
    },
    {
      "anonymous": false,
      "inputs": [
        {
          "indexed": true,
          "internalType": "address",
          "name": "previousOwner",
          "type": "address"
        },
        {
          "indexed": true,
          "internalType": "address",
          "name": "newOwner",
          "type": "address"
        }
      ],
      "name": "OwnershipTransferred",
      "type": "event"
    },
    {
      "anonymous": false,
      "inputs": [
        {
          "indexed": false,
          "internalType": "address",
          "name": "token",
          "type": "address"
        },
        {
          "indexed": false,
          "internalType": "uint256",
          "name": "amount",
          "type": "uint256"
        }
      ],
      "name": "Recovered",
      "type": "event"
    },
    {
      "anonymous": false,
      "inputs": [
        {
          "indexed": false,
          "internalType": "uint256",
          "name": "reward",
          "type": "uint256"
        }
      ],
      "name": "RewardAdded",
      "type": "event"
    },
    {
      "anonymous": false,
      "inputs": [
        {
          "indexed": true,
          "internalType": "address",
          "name": "user",
          "type": "address"
        },
        {
          "indexed": true,
          "internalType": "address",
          "name": "rewardsToken",
          "type": "address"
        },
        {
          "indexed": false,
          "internalType": "uint256",
          "name": "reward",
          "type": "uint256"
        }
      ],
      "name": "RewardPaid",
      "type": "event"
    },
    {
      "anonymous": false,
      "inputs": [
        {
          "indexed": false,
          "internalType": "address",
          "name": "token",
          "type": "address"
        },
        {
          "indexed": false,
          "internalType": "uint256",
          "name": "newDuration",
          "type": "uint256"
        }
      ],
      "name": "RewardsDurationUpdated",
      "type": "event"
    },
    {
      "anonymous": false,
      "inputs": [
        {
          "indexed": true,
          "internalType": "address",
          "name": "user",
          "type": "address"
        },
        {
          "indexed": false,
          "internalType": "uint256",
          "name": "amount",
          "type": "uint256"
        },
        {
          "indexed": false,
          "internalType": "bool",
          "name": "locked",
          "type": "bool"
        }
      ],
      "name": "Staked",
      "type": "event"
    },
    {
      "anonymous": false,
      "inputs": [
        {
          "indexed": true,
          "internalType": "address",
          "name": "user",
          "type": "address"
        },
        {
          "indexed": false,
          "internalType": "uint256",
          "name": "receivedAmount",
          "type": "uint256"
        },
        {
          "indexed": false,
          "internalType": "uint256",
          "name": "penaltyPaid",
          "type": "uint256"
        }
      ],
      "name": "Withdrawn",
      "type": "event"
    },
    {
      "inputs": [
        {
          "internalType": "address",
          "name": "_rewardsToken",
          "type": "address"
        }
      ],
      "name": "addReward",
      "outputs": [],
      "stateMutability": "nonpayable",
      "type": "function"
    },
    {
      "inputs": [
        {
          "internalType": "address",
          "name": "account",
          "type": "address"
        }
      ],
      "name": "claimableRewards",
      "outputs": [
        {
          "components": [
            {
              "internalType": "address",
              "name": "token",
              "type": "address"
            },
            {
              "internalType": "uint256",
              "name": "amount",
              "type": "uint256"
            }
          ],
          "internalType": "struct MultiFeeDistribution.RewardData[]",
          "name": "rewards",
          "type": "tuple[]"
        }
      ],
      "stateMutability": "view",
      "type": "function"
    },
    {
      "inputs": [
        {
          "internalType": "address",
          "name": "user",
          "type": "address"
        }
      ],
      "name": "earnedBalances",
      "outputs": [
        {
          "internalType": "uint256",
          "name": "total",
          "type": "uint256"
        },
        {
          "components": [
            {
              "internalType": "uint256",
              "name": "amount",
              "type": "uint256"
            },
            {
              "internalType": "uint256",
              "name": "unlockTime",
              "type": "uint256"
            }
          ],
          "internalType": "struct MultiFeeDistribution.LockedBalance[]",
          "name": "earningsData",
          "type": "tuple[]"
        }
      ],
      "stateMutability": "view",
      "type": "function"
    },
    {
      "inputs": [
        {
          "internalType": "bool",
          "name": "claimRewards",
          "type": "bool"
        }
      ],
      "name": "exit",
      "outputs": [],
      "stateMutability": "nonpayable",
      "type": "function"
    },
    {
      "inputs": [],
      "name": "getReward",
      "outputs": [],
      "stateMutability": "nonpayable",
      "type": "function"
    },
    {
      "inputs": [
        {
          "internalType": "address[]",
          "name": "_rewardTokens",
          "type": "address[]"
        }
      ],
      "name": "getReward",
      "outputs": [],
      "stateMutability": "nonpayable",
      "type": "function"
    },
    {
      "inputs": [
        {
          "internalType": "address",
          "name": "_rewardsToken",
          "type": "address"
        }
      ],
      "name": "getRewardForDuration",
      "outputs": [
        {
          "internalType": "uint256",
          "name": "",
          "type": "uint256"
        }
      ],
      "stateMutability": "view",
      "type": "function"
    },
    {
      "inputs": [],
      "name": "incentivesController",
      "outputs": [
        {
          "internalType": "contract IChefIncentivesController",
          "name": "",
          "type": "address"
        }
      ],
      "stateMutability": "view",
      "type": "function"
    },
    {
      "inputs": [
        {
          "internalType": "address",
          "name": "_rewardsToken",
          "type": "address"
        }
      ],
      "name": "lastTimeRewardApplicable",
      "outputs": [
        {
          "internalType": "uint256",
          "name": "",
          "type": "uint256"
        }
      ],
      "stateMutability": "view",
      "type": "function"
    },
    {
      "inputs": [],
      "name": "lockDuration",
      "outputs": [
        {
          "internalType": "uint256",
          "name": "",
          "type": "uint256"
        }
      ],
      "stateMutability": "view",
      "type": "function"
    },
    {
      "inputs": [
        {
          "internalType": "address",
          "name": "user",
          "type": "address"
        }
      ],
      "name": "lockedBalances",
      "outputs": [
        {
          "internalType": "uint256",
          "name": "total",
          "type": "uint256"
        },
        {
          "internalType": "uint256",
          "name": "unlockable",
          "type": "uint256"
        },
        {
          "internalType": "uint256",
          "name": "locked",
          "type": "uint256"
        },
        {
          "components": [
            {
              "internalType": "uint256",
              "name": "amount",
              "type": "uint256"
            },
            {
              "internalType": "uint256",
              "name": "unlockTime",
              "type": "uint256"
            }
          ],
          "internalType": "struct MultiFeeDistribution.LockedBalance[]",
          "name": "lockData",
          "type": "tuple[]"
        }
      ],
      "stateMutability": "view",
      "type": "function"
    },
    {
      "inputs": [],
      "name": "lockedSupply",
      "outputs": [
        {
          "internalType": "uint256",
          "name": "",
          "type": "uint256"
        }
      ],
      "stateMutability": "view",
      "type": "function"
    },
    {
      "inputs": [
        {
          "internalType": "address",
          "name": "user",
          "type": "address"
        },
        {
          "internalType": "uint256",
          "name": "amount",
          "type": "uint256"
        },
        {
          "internalType": "bool",
          "name": "withPenalty",
          "type": "bool"
        }
      ],
      "name": "mint",
      "outputs": [],
      "stateMutability": "nonpayable",
      "type": "function"
    },
    {
      "inputs": [
        {
          "internalType": "address",
          "name": "",
          "type": "address"
        }
      ],
      "name": "minters",
      "outputs": [
        {
          "internalType": "bool",
          "name": "",
          "type": "bool"
        }
      ],
      "stateMutability": "view",
      "type": "function"
    },
    {
      "inputs": [],
      "name": "mintersAreSet",
      "outputs": [
        {
          "internalType": "bool",
          "name": "",
          "type": "bool"
        }
      ],
      "stateMutability": "view",
      "type": "function"
    },
    {
      "inputs": [],
      "name": "owner",
      "outputs": [
        {
          "internalType": "address",
          "name": "",
          "type": "address"
        }
      ],
      "stateMutability": "view",
      "type": "function"
    },
    {
      "inputs": [
        {
          "internalType": "address",
          "name": "tokenAddress",
          "type": "address"
        },
        {
          "internalType": "uint256",
          "name": "tokenAmount",
          "type": "uint256"
        }
      ],
      "name": "recoverERC20",
      "outputs": [],
      "stateMutability": "nonpayable",
      "type": "function"
    },
    {
      "inputs": [],
      "name": "renounceOwnership",
      "outputs": [],
      "stateMutability": "nonpayable",
      "type": "function"
    },
    {
      "inputs": [
        {
          "internalType": "address",
          "name": "",
          "type": "address"
        }
      ],
      "name": "rewardData",
      "outputs": [
        {
          "internalType": "uint256",
          "name": "periodFinish",
          "type": "uint256"
        },
        {
          "internalType": "uint256",
          "name": "rewardRate",
          "type": "uint256"
        },
        {
          "internalType": "uint256",
          "name": "lastUpdateTime",
          "type": "uint256"
        },
        {
          "internalType": "uint256",
          "name": "rewardPerTokenStored",
          "type": "uint256"
        },
        {
          "internalType": "uint256",
          "name": "balance",
          "type": "uint256"
        }
      ],
      "stateMutability": "view",
      "type": "function"
    },
    {
      "inputs": [
        {
          "internalType": "address",
          "name": "_rewardsToken",
          "type": "address"
        }
      ],
      "name": "rewardPerToken",
      "outputs": [
        {
          "internalType": "uint256",
          "name": "",
          "type": "uint256"
        }
      ],
      "stateMutability": "view",
      "type": "function"
    },
    {
      "inputs": [
        {
          "internalType": "uint256",
          "name": "",
          "type": "uint256"
        }
      ],
      "name": "rewardTokens",
      "outputs": [
        {
          "internalType": "address",
          "name": "",
          "type": "address"
        }
      ],
      "stateMutability": "view",
      "type": "function"
    },
    {
      "inputs": [
        {
          "internalType": "address",
          "name": "",
          "type": "address"
        },
        {
          "internalType": "address",
          "name": "",
          "type": "address"
        }
      ],
      "name": "rewards",
      "outputs": [
        {
          "internalType": "uint256",
          "name": "",
          "type": "uint256"
        }
      ],
      "stateMutability": "view",
      "type": "function"
    },
    {
      "inputs": [],
      "name": "rewardsDuration",
      "outputs": [
        {
          "internalType": "uint256",
          "name": "",
          "type": "uint256"
        }
      ],
      "stateMutability": "view",
      "type": "function"
    },
    {
      "inputs": [
        {
          "internalType": "contract IChefIncentivesController",
          "name": "_controller",
          "type": "address"
        }
      ],
      "name": "setIncentivesController",
      "outputs": [],
      "stateMutability": "nonpayable",
      "type": "function"
    },
    {
      "inputs": [
        {
          "internalType": "address[]",
          "name": "_minters",
          "type": "address[]"
        }
      ],
      "name": "setMinters",
      "outputs": [],
      "stateMutability": "nonpayable",
      "type": "function"
    },
    {
      "inputs": [
        {
          "internalType": "uint256",
          "name": "amount",
          "type": "uint256"
        },
        {
          "internalType": "bool",
          "name": "lock",
          "type": "bool"
        }
      ],
      "name": "stake",
      "outputs": [],
      "stateMutability": "nonpayable",
      "type": "function"
    },
    {
      "inputs": [],
      "name": "stakingToken",
      "outputs": [
        {
          "internalType": "contract IMintableToken",
          "name": "",
          "type": "address"
        }
      ],
      "stateMutability": "view",
      "type": "function"
    },
    {
      "inputs": [
        {
          "internalType": "address",
          "name": "user",
          "type": "address"
        }
      ],
      "name": "totalBalance",
      "outputs": [
        {
          "internalType": "uint256",
          "name": "amount",
          "type": "uint256"
        }
      ],
      "stateMutability": "view",
      "type": "function"
    },
    {
      "inputs": [],
      "name": "totalSupply",
      "outputs": [
        {
          "internalType": "uint256",
          "name": "",
          "type": "uint256"
        }
      ],
      "stateMutability": "view",
      "type": "function"
    },
    {
      "inputs": [
        {
          "internalType": "address",
          "name": "newOwner",
          "type": "address"
        }
      ],
      "name": "transferOwnership",
      "outputs": [],
      "stateMutability": "nonpayable",
      "type": "function"
    },
    {
      "inputs": [
        {
          "internalType": "address",
          "name": "user",
          "type": "address"
        }
      ],
      "name": "unlockedBalance",
      "outputs": [
        {
          "internalType": "uint256",
          "name": "amount",
          "type": "uint256"
        }
      ],
      "stateMutability": "view",
      "type": "function"
    },
    {
      "inputs": [
        {
          "internalType": "address",
          "name": "",
          "type": "address"
        },
        {
          "internalType": "address",
          "name": "",
          "type": "address"
        }
      ],
      "name": "userRewardPerTokenPaid",
      "outputs": [
        {
          "internalType": "uint256",
          "name": "",
          "type": "uint256"
        }
      ],
      "stateMutability": "view",
      "type": "function"
    },
    {
      "inputs": [
        {
          "internalType": "uint256",
          "name": "amount",
          "type": "uint256"
        }
      ],
      "name": "withdraw",
      "outputs": [],
      "stateMutability": "nonpayable",
      "type": "function"
    },
    {
      "inputs": [],
      "name": "withdrawExpiredLocks",
      "outputs": [],
      "stateMutability": "nonpayable",
      "type": "function"
    },
    {
      "inputs": [
        {
          "internalType": "address",
          "name": "user",
          "type": "address"
        }
      ],
      "name": "withdrawableBalance",
      "outputs": [
        {
          "internalType": "uint256",
          "name": "amount",
          "type": "uint256"
        },
        {
          "internalType": "uint256",
          "name": "penaltyAmount",
          "type": "uint256"
        }
      ],
      "stateMutability": "view",
      "type": "function"
    }
  ],
  "bytecode": "0x60a06040523480156200001157600080fd5b50604051620031ce380380620031ce833981016040819052620000349162000187565b60006200004062000183565b600080546001600160a01b0319166001600160a01b0383169081178255604051929350917f8be0079c531659141344cd1fd0a4f28419497f9722a3daafe3b4186f6b6457e0908290a3506001600160601b0319606082901b16608052604051637e51dad560e11b81526001600160a01b0382169063fca3b5aa90620000ca903090600401620001d9565b602060405180830381600087803b158015620000e557600080fd5b505af1158015620000fa573d6000803e3d6000fd5b505050506040513d601f19601f82011682018060405250810190620001209190620001b7565b50600280546001810182557f405787fa12a823e0f2b7631cc41b3ba8828b3321ca811111fa75cd3aa3bb5ace0180546001600160a01b039093166001600160a01b03199093168317905560009182526003602052604090912042910155620001ed565b3390565b60006020828403121562000199578081fd5b81516001600160a01b0381168114620001b0578182fd5b9392505050565b600060208284031215620001c9578081fd5b81518015158114620001b0578182fd5b6001600160a01b0391909116815260200190565b60805160601c612f8762000247600039806109f45280610ab35280610e3a5280610ef552806112085280611447528061154c52806115ec5280611b6b5280611c2a5280611d135280611f4f52806122c95250612f876000f3fe608060405234801561001057600080fd5b50600436106102115760003560e01c80638980f11f11610125578063d1a1beb4116100ad578063e6c91a151161007c578063e6c91a1514610453578063e70b9e2714610466578063f122977714610479578063f2fde38b1461048c578063f46eccc41461049f57610211565b8063d1a1beb4146103ec578063dc01f60d146103ff578063df3798761461041f578063e655dbd81461044057610211565b8063a01c77bc116100f4578063a01c77bc146103ae578063abe50f19146103b6578063af1df255146103c9578063bcd11014146103d1578063ca5c7b91146103e457610211565b80638980f11f1461036b5780638da5cb5b1461037e5780638fd9f2ca146103865780639c9b2e211461039b57610211565b8063547d0096116101a85780637035ab98116101775780637035ab9814610315578063715018a61461032857806372f702f3146103305780637bb7bed1146103455780637fd7d0621461035857610211565b8063547d0096146102c95780635e0fac2e146102dc578063638634ee146102ef5780636eacd3981461030257610211565b80632e1a7d4d116101e45780632e1a7d4d14610280578063386a9525146102955780633d18b9121461029d57806348e5d9f8146102a557610211565b806302b629381461021657806304554443146102405780630483a7f61461025557806318160ddd14610278575b600080fd5b610229610224366004612971565b6104b2565b604051610237929190612e3d565b60405180910390f35b6102486105e2565b6040516102379190612e0b565b610268610263366004612971565b6105e9565b6040516102379493929190612e4b565b610248610777565b61029361028e366004612b1e565b61077d565b005b610248610b21565b610293610b28565b6102b86102b3366004612971565b610b96565b604051610237959493929190612e7a565b6102936102d7366004612a31565b610bc6565b6102486102ea366004612971565b610c97565b6102486102fd366004612971565b610d2f565b610248610310366004612971565b610d5e565b61024861032336600461298d565b610d79565b610293610d96565b610338610e38565b6040516102379190612bb7565b610338610353366004612b1e565b610e5c565b610293610366366004612a31565b610e86565b6102936103793660046129c5565b610e9b565b610338610fd7565b61038e610fe6565b6040516102379190612c98565b6102936103a9366004612971565b610fef565b6102936110cf565b6102936103c4366004612b4e565b61126b565b6103386114b7565b6102486103df366004612971565b6114c6565b610248611500565b6102936103fa3660046129f0565b611506565b61041261040d366004612971565b61179e565b6040516102379190612c40565b61043261042d366004612971565b611939565b604051610237929190612e14565b61029361044e366004612971565b611a5d565b610293610461366004612ae6565b611ad7565b61024861047436600461298d565b611cf1565b610248610487366004612971565b611d0e565b61029361049a366004612971565b611d62565b61038e6104ad366004612971565b611e5a565b6001600160a01b0381166000908152600a60205260408120600381015482919080156105b8576001600160a01b0385166000908152600c6020526040812054815b8181101561059d576001600160a01b0388166000908152600c6020526040812080548390811061051f57fe5b906000526020600020906002020160000154905080600014156105425750610595565b6001600160a01b0389166000908152600c6020526040902080544291908490811061056957fe5b9060005260206000209060020201600101541115610587575061059d565b6105918482611e6f565b9350505b6001016104f3565b506105b360026105ad8585611ec9565b90611f0b565b945050505b6105d9836105d3838560010154611e6f90919063ffffffff16565b90611ec9565b93505050915091565b6277f88081565b6001600160a01b0381166000908152600b602052604081208190819060609082805b825481101561074f574283828154811061062157fe5b906000526020600020906002020160010154111561071d578161069757825481900367ffffffffffffffff8111801561065957600080fd5b5060405190808252806020026020018201604052801561069357816020015b6106806128f5565b8152602001906001900390816106785790505b5093505b8281815481106106a357fe5b9060005260206000209060020201604051806040016040529081600082015481526020016001820154815250508483815181106106dc57fe5b602002602001018190525081806001019250506107168382815481106106fe57fe5b60009182526020909120600290910201548690611e6f565b9450610747565b61074483828154811061072c57fe5b60009182526020909120600290910201548790611e6f565b95505b60010161060b565b5050506001600160a01b0385166000908152600a602052604090206002015493509193509193565b60085481565b600081116107a65760405162461bcd60e51b815260040161079d90612d0d565b60405180910390fd5b6107af33611f4d565b336000908152600a60205260408120600181015490919083116107e55760018201546107db9084611ec9565b60018301556109ba565b60006107fe836001015485611ec990919063ffffffff16565b905080836003015410156108245760405162461bcd60e51b815260040161079d90612d6f565b60006001840155600383015461083a9082611ec9565b600384015560005b336000908152600c6020526040812080548390811061085d57fe5b9060005260206000209060020201600001549050806000141561088057506109af565b831580156108bb5750336000908152600c602052604090208054429190849081106108a757fe5b906000526020600020906002020160010154115b1561092d5782935082856003015410156108e75760405162461bcd60e51b815260040161079d90612ccb565b60038501546108f69084611ec9565b6003860181905561091f57336000908152600c602052604081206109199161290f565b506109b7565b61092a83600261210d565b92505b8083116109705761093e8184611ec9565b336000908152600c6020526040902080548490811061095957fe5b6000918252602090912060029091020155506109b7565b336000908152600c6020526040902080548390811061098b57fe5b600091825260208220600290910201818155600101556109ab8382611ec9565b9250505b600101610842565b50505b60006109c68483611e6f565b83549091506109d59082611ec9565b83556008546109e49082611ec9565b600855610a1b6001600160a01b037f0000000000000000000000000000000000000000000000000000000000000000163386612166565b8115610ad8576001546001600160a01b0316638e2eba09306000604051908082528060200260200182016040528015610a5e578160200160208202803683370190505b506040518363ffffffff1660e01b8152600401610a7c929190612bcb565b600060405180830381600087803b158015610a9657600080fd5b505af1158015610aaa573d6000803e3d6000fd5b50505050610ad87f0000000000000000000000000000000000000000000000000000000000000000836121b8565b336001600160a01b03167f92ccf450a286a957af52509bc1c9939d1a6a481783e142e41e2499f0bb66ebc68584604051610b13929190612e3d565b60405180910390a250505050565b62093a8081565b610b3133611f4d565b610b946002805480602002602001604051908101604052809291908181526020018280548015610b8a57602002820191906000526020600020905b81546001600160a01b03168152600190910190602001808311610b6c575b505050505061226a565b565b60036020819052600091825260409091208054600182015460028301549383015460049093015491939092909185565b610bce61249c565b6000546001600160a01b03908116911614610c1e576040805162461bcd60e51b81526020600482018190526024820152600080516020612f08833981519152604482015290519081900360640190fd5b60055460ff1615610c2e57600080fd5b60005b8151811015610c8657600160046000848481518110610c4c57fe5b6020908102919091018101516001600160a01b03168252810191909152604001600020805460ff1916911515919091179055600101610c31565b50506005805460ff19166001179055565b6001600160a01b0381166000908152600a6020908152604080832060010154338452600c909252822090915b8154811015610d275742828281548110610cd957fe5b9060005260206000209060020201600101541115610cf657610d27565b610d1d828281548110610d0557fe5b60009182526020909120600290910201548490611e6f565b9250600101610cc3565b50505b919050565b6001600160a01b038116600090815260036020526040812054428111610d555780610d57565b425b9392505050565b6001600160a01b03166000908152600a602052604090205490565b600660209081526000928352604080842090915290825290205481565b610d9e61249c565b6000546001600160a01b03908116911614610dee576040805162461bcd60e51b81526020600482018190526024820152600080516020612f08833981519152604482015290519081900360640190fd5b600080546040516001600160a01b03909116907f8be0079c531659141344cd1fd0a4f28419497f9722a3daafe3b4186f6b6457e0908390a3600080546001600160a01b0319169055565b7f000000000000000000000000000000000000000000000000000000000000000081565b60028181548110610e6c57600080fd5b6000918252602090912001546001600160a01b0316905081565b610e8f33611f4d565b610e988161226a565b50565b610ea361249c565b6000546001600160a01b03908116911614610ef3576040805162461bcd60e51b81526020600482018190526024820152600080516020612f08833981519152604482015290519081900360640190fd5b7f00000000000000000000000000000000000000000000000000000000000000006001600160a01b0316826001600160a01b03161415610f455760405162461bcd60e51b815260040161079d90612d38565b6001600160a01b03821660009081526003602052604090206002015415610f7e5760405162461bcd60e51b815260040161079d90612da6565b610f9a610f89610fd7565b6001600160a01b0384169083612166565b7f8c1256b8896378cd5044f80c202f9772b9d77dc85c8a6eb51967210b09bfaa288282604051610fcb929190612c27565b60405180910390a15050565b6000546001600160a01b031690565b60055460ff1681565b610ff761249c565b6000546001600160a01b03908116911614611047576040805162461bcd60e51b81526020600482018190526024820152600080516020612f08833981519152604482015290519081900360640190fd5b6001600160a01b0381166000908152600360205260409020600201541561106d57600080fd5b600280546001810182557f405787fa12a823e0f2b7631cc41b3ba8828b3321ca811111fa75cd3aa3bb5ace0180546001600160a01b039093166001600160a01b0319909316831790556000918252600360205260409091204291810182905555565b6110d833611f4d565b336000908152600b60209081526040808320600a90925282208154919290914284600019830183811061110757fe5b90600052602060002090600202016001015411611144576002830154336000908152600b6020526040812091935061113f919061290f565b6111b9565b60005b818110156111b7574285828154811061115c57fe5b9060005260206000209060020201600101541115611179576111b7565b611188858281548110610d0557fe5b925084818154811061119657fe5b60009182526020822060029091020181815560019081019190915501611147565b505b60028301546111c89083611ec9565b600284015582546111d99083611ec9565b83556008546111e89083611ec9565b6008556009546111f89083611ec9565b60095561122f6001600160a01b037f0000000000000000000000000000000000000000000000000000000000000000163384612166565b336001600160a01b03167f92ccf450a286a957af52509bc1c9939d1a6a481783e142e41e2499f0bb66ebc6836000604051610b13929190612e3d565b6000821161128b5760405162461bcd60e51b815260040161079d90612ca3565b61129433611f4d565b6008546112a19083611e6f565b600855336000908152600a6020526040902080546112bf9084611e6f565b81558115611425576009546112d49084611e6f565b60095560028101546112e69084611e6f565b600282015560006113116277f88061130b62093a806113054282611f0b565b9061210d565b90611e6f565b336000908152600b60205260409020549091508015806113625750336000908152600b602052604090208054839190600019840190811061134e57fe5b906000526020600020906002020160010154105b156113b157336000908152600b6020908152604080832081518083019092528882528183018681528154600181810184559286529390942091516002909302909101918255915191015561141e565b336000908152600b6020526040902080546113ed91879160001985019081106113d657fe5b600091825260209091206002909102015490611e6f565b336000908152600b602052604090208054600019840190811061140c57fe5b60009182526020909120600290910201555b505061143a565b60018101546114349084611e6f565b60018201555b61146f6001600160a01b037f0000000000000000000000000000000000000000000000000000000000000000163330866124a0565b336001600160a01b03167f37d4053e34fde482e96f6bcd424dfa31342cbd5fe184d497fb3c8bb4b4b9758084846040516114aa929190612e2d565b60405180910390a2505050565b6001546001600160a01b031681565b6001600160a01b0381166000908152600360205260408120600101546114fa9064e8d4a51000906105ad9062093a8061210d565b92915050565b60095481565b3360009081526004602052604090205460ff1661152257600080fd5b8161152c57611799565b61153583611f4d565b6040516340c10f1960e01b81526001600160a01b037f000000000000000000000000000000000000000000000000000000000000000016906340c10f19906115839030908690600401612c27565b602060405180830381600087803b15801561159d57600080fd5b505af11580156115b1573d6000803e3d6000fd5b505050506040513d601f19601f820116820180604052508101906115d59190612b02565b506001600160a01b038316301415611616576116117f0000000000000000000000000000000000000000000000000000000000000000836121b8565b611799565b6008546116239083611e6f565b6008556001600160a01b0383166000908152600a60205260409020805461164a9084611e6f565b815581156117485760038101546116619084611e6f565b600382015560006116806277f88061130b62093a806113054282611f0b565b6001600160a01b0386166000908152600c602052604090208054919250908015806116ca5750828260018303815481106116b657fe5b906000526020600020906002020160010154105b1561170c576040805180820190915286815260208082018581528454600181810187556000878152939093209351600290910290930192835551910155611740565b61171f868360018403815481106113d657fe5b82600183038154811061172e57fe5b60009182526020909120600290910201555b50505061175d565b60018101546117579084611e6f565b60018201555b836001600160a01b03167f37d4053e34fde482e96f6bcd424dfa31342cbd5fe184d497fb3c8bb4b4b97580846000604051610b13929190612e2d565b505050565b60025460609067ffffffffffffffff811180156117ba57600080fd5b506040519080825280602002602001820160405280156117f457816020015b6117e1612930565b8152602001906001900390816117d95790505b50905060005b81518110156119335760008115611829576001600160a01b0384166000908152600a6020526040902054611846565b6001600160a01b0384166000908152600a60205260409020600201545b9050600082156118585760085461185c565b6009545b90506002838154811061186b57fe5b9060005260206000200160009054906101000a90046001600160a01b031684848151811061189557fe5b6020026020010151600001906001600160a01b031690816001600160a01b03168152505061190f64e8d4a510006105ad878787815181106118d257fe5b6020026020010151600001518661190a60028a815481106118ef57fe5b6000918252602090912001546001600160a01b031688612500565b612597565b84848151811061191b57fe5b602090810291909101810151015250506001016117fa565b50919050565b6001600160a01b0381166000908152600c6020526040812060609082805b8254811015611a55574283828154811061196d57fe5b9060005260206000209060020201600101541115611a4d57816119e357825481900367ffffffffffffffff811180156119a557600080fd5b506040519080825280602002602001820160405280156119df57816020015b6119cc6128f5565b8152602001906001900390816119c45790505b5093505b8281815481106119ef57fe5b906000526020600020906002020160405180604001604052908160008201548152602001600182015481525050848381518110611a2857fe5b60200260200101819052508180600101925050611a4a8382815481106106fe57fe5b94505b600101611957565b505050915091565b611a6561249c565b6000546001600160a01b03908116911614611ab5576040805162461bcd60e51b81526020600482018190526024820152600080516020612f08833981519152604482015290519081900360640190fd5b600180546001600160a01b0319166001600160a01b0392909216919091179055565b611ae033611f4d565b600080611aec336104b2565b336000908152600c60205260408120929450909250611b0b919061290f565b336000908152600a60205260409020600381015460018201548254611b3592916105d39190611ec9565b81556000600182018190556003820155611b5b611b528484611e6f565b60085490611ec9565b600855611b926001600160a01b037f0000000000000000000000000000000000000000000000000000000000000000163385612166565b8115611c4f576001546001600160a01b0316638e2eba09306000604051908082528060200260200182016040528015611bd5578160200160208202803683370190505b506040518363ffffffff1660e01b8152600401611bf3929190612bcb565b600060405180830381600087803b158015611c0d57600080fd5b505af1158015611c21573d6000803e3d6000fd5b50505050611c4f7f0000000000000000000000000000000000000000000000000000000000000000836121b8565b8315611cb657611cb66002805480602002602001604051908101604052809291908181526020018280548015610b8a576020028201919060005260206000209081546001600160a01b03168152600190910190602001808311610b6c57505050505061226a565b336001600160a01b03167f92ccf450a286a957af52509bc1c9939d1a6a481783e142e41e2499f0bb66ebc68484604051610b13929190612e3d565b600760209081526000928352604080842090915290825290205481565b6000807f00000000000000000000000000000000000000000000000000000000000000006001600160a01b0316836001600160a01b031614611d5257600854611d56565b6009545b9050610d578382612500565b611d6a61249c565b6000546001600160a01b03908116911614611dba576040805162461bcd60e51b81526020600482018190526024820152600080516020612f08833981519152604482015290519081900360640190fd5b6001600160a01b038116611dff5760405162461bcd60e51b8152600401808060200182810382526026815260200180612ec16026913960400191505060405180910390fd5b600080546040516001600160a01b03808516939216917f8be0079c531659141344cd1fd0a4f28419497f9722a3daafe3b4186f6b6457e091a3600080546001600160a01b0319166001600160a01b0392909216919091179055565b60046020526000908152604090205460ff1681565b600082820183811015610d57576040805162461bcd60e51b815260206004820152601b60248201527f536166654d6174683a206164646974696f6e206f766572666c6f770000000000604482015290519081900360640190fd5b6000610d5783836040518060400160405280601e81526020017f536166654d6174683a207375627472616374696f6e206f766572666c6f770000815250612606565b6000610d5783836040518060400160405280601a81526020017f536166654d6174683a206469766973696f6e206279207a65726f00000000000081525061269d565b7f00000000000000000000000000000000000000000000000000000000000000006001600160a01b03811660009081526003602052604081206009548290611f96908590612500565b600383018190559050611fa884610d2f565b60028301556001600160a01b0385163014612036576001600160a01b0385166000908152600a6020526040902060020154611fe7908690869084612597565b6001600160a01b038087166000818152600760209081526040808320948a168084529482528083209590955582825260068152848220938252928352838120859055908152600a909152205492505b60085460025460015b81811015612103576002818154811061205457fe5b60009182526020808320909101546001600160a01b03168083526003909152604090912090975094506120878784612500565b60038601819055935061209987610d2f565b60028601556001600160a01b03881630146120fb576120ba88888887612597565b6001600160a01b03808a166000818152600760209081526040808320948d168084529482528083209590955591815260068252838120928152919052208490555b60010161203f565b5050505050505050565b60008261211c575060006114fa565b8282028284828161212957fe5b0414610d575760405162461bcd60e51b8152600401808060200182810382526021815260200180612ee76021913960400191505060405180910390fd5b604080516001600160a01b038416602482015260448082018490528251808303909101815260649091019091526020810180516001600160e01b031663a9059cbb60e01b179052611799908490612702565b6001600160a01b0382166000908152600360205260409020805442106121f8576121ee62093a806105ad8464e8d4a5100061210d565b600182015561224f565b80546000906122079042611ec9565b9050600061222b64e8d4a510006105ad85600101548561210d90919063ffffffff16565b905061224762093a806105ad64e8d4a510006113058886611e6f565b600184015550505b42600282018190556122649062093a80611e6f565b90555050565b805160005b8181101561179957600083828151811061228557fe5b6020908102919091018101513360009081526007835260408082206001600160a01b0384168352909352918220549092506122c59064e8d4a51000611f0b565b90507f00000000000000000000000000000000000000000000000000000000000000006001600160a01b0316826001600160a01b031614612409576001600160a01b03821660009081526003602052604090208054806123375760405162461bcd60e51b815260040161079d90612ddd565b6004820154612349426207e900611e6f565b8210156123f35760006123d282876001600160a01b03166370a08231306040518263ffffffff1660e01b81526004016123829190612bb7565b60206040518083038186803b15801561239a57600080fd5b505afa1580156123ae573d6000803e3d6000fd5b505050506040513d601f19601f820116820180604052508101906105d39190612b36565b905080156123f1576123e486826121b8565b6123ee8282611e6f565b91505b505b6123fd8185611ec9565b83600401819055505050505b80612415575050612494565b3360008181526007602090815260408083206001600160a01b03871680855292528220919091556124469183612166565b816001600160a01b0316336001600160a01b03167f540798df468d7b23d11f156fdb954cb19ad414d150722a7b6d55ba369dea792e836040516124899190612e0b565b60405180910390a350505b60010161226f565b3390565b604080516001600160a01b0380861660248301528416604482015260648082018490528251808303909101815260849091019091526020810180516001600160e01b03166323b872dd60e01b1790526124fa908590612702565b50505050565b60008161252a57506001600160a01b038216600090815260036020819052604090912001546114fa565b6001600160a01b03831660009081526003602052604090206001810154600290910154610d57916125749185916105ad91670de0b6b3a7640000916113059182906105d38c610d2f565b6001600160a01b0385166000908152600360208190526040909120015490611e6f565b6001600160a01b0380851660008181526007602090815260408083209488168084529482528083205493835260068252808320948352939052918220546125fd919061130b90670de0b6b3a7640000906105ad906125f6908890611ec9565b889061210d565b95945050505050565b600081848411156126955760405162461bcd60e51b81526004018080602001828103825283818151815260200191508051906020019080838360005b8381101561265a578181015183820152602001612642565b50505050905090810190601f1680156126875780820380516001836020036101000a031916815260200191505b509250505060405180910390fd5b505050900390565b600081836126ec5760405162461bcd60e51b815260206004820181815283516024840152835190928392604490910191908501908083836000831561265a578181015183820152602001612642565b5060008385816126f857fe5b0495945050505050565b612714826001600160a01b03166128b9565b612765576040805162461bcd60e51b815260206004820152601f60248201527f5361666545524332303a2063616c6c20746f206e6f6e2d636f6e747261637400604482015290519081900360640190fd5b600080836001600160a01b0316836040518082805190602001908083835b602083106127a25780518252601f199092019160209182019101612783565b6001836020036101000a0380198251168184511680821785525050505050509050019150506000604051808303816000865af19150503d8060008114612804576040519150601f19603f3d011682016040523d82523d6000602084013e612809565b606091505b509150915081612860576040805162461bcd60e51b815260206004820181905260248201527f5361666545524332303a206c6f772d6c6576656c2063616c6c206661696c6564604482015290519081900360640190fd5b8051156124fa5780806020019051602081101561287c57600080fd5b50516124fa5760405162461bcd60e51b815260040180806020018281038252602a815260200180612f28602a913960400191505060405180910390fd5b6000813f7fc5d2460186f7233c927e7db2dcc703c0e500b653ca82273b7bfad8045d85a4708181148015906128ed57508115155b949350505050565b604051806040016040528060008152602001600081525090565b5080546000825560020290600052602060002090810190610e989190612947565b604080518082019091526000808252602082015290565b5b808211156129625760008082556001820155600201612948565b5090565b8035610d2a81612e9d565b600060208284031215612982578081fd5b8135610d5781612e9d565b6000806040838503121561299f578081fd5b82356129aa81612e9d565b915060208301356129ba81612e9d565b809150509250929050565b600080604083850312156129d7578182fd5b82356129e281612e9d565b946020939093013593505050565b600080600060608486031215612a04578081fd5b8335612a0f81612e9d565b9250602084013591506040840135612a2681612eb2565b809150509250925092565b60006020808385031215612a43578182fd5b823567ffffffffffffffff80821115612a5a578384fd5b818501915085601f830112612a6d578384fd5b813581811115612a7957fe5b83810260405185828201018181108582111715612a9257fe5b604052828152858101935084860182860187018a1015612ab0578788fd5b8795505b83861015612ad957612ac581612966565b855260019590950194938601938601612ab4565b5098975050505050505050565b600060208284031215612af7578081fd5b8135610d5781612eb2565b600060208284031215612b13578081fd5b8151610d5781612eb2565b600060208284031215612b2f578081fd5b5035919050565b600060208284031215612b47578081fd5b5051919050565b60008060408385031215612b60578182fd5b8235915060208301356129ba81612eb2565b6000815180845260208085019450808401835b83811015612bac578151805188528301518388015260409096019590820190600101612b85565b509495945050505050565b6001600160a01b0391909116815260200190565b6001600160a01b038381168252604060208084018290528451918401829052600092858201929091906060860190855b81811015612c19578551851683529483019491830191600101612bfb565b509098975050505050505050565b6001600160a01b03929092168252602082015260400190565b602080825282518282018190526000919060409081850190868401855b82811015612c8b57815180516001600160a01b03168552860151868501529284019290850190600101612c5d565b5091979650505050505050565b901515815260200190565b6020808252600e908201526d043616e6e6f74207374616b6520360941b604082015260600190565b60208082526022908201527f496e73756666696369656e742062616c616e63652061667465722070656e616c604082015261747960f01b606082015260800190565b602080825260119082015270043616e6e6f74207769746864726177203607c1b604082015260600190565b6020808252601d908201527f43616e6e6f74207769746864726177207374616b696e6720746f6b656e000000604082015260600190565b6020808252601d908201527f496e73756666696369656e7420756e6c6f636b65642062616c616e6365000000604082015260600190565b6020808252601c908201527f43616e6e6f742077697468647261772072657761726420746f6b656e00000000604082015260600190565b6020808252601490820152732ab735b737bbb7103932bbb0b932103a37b5b2b760611b604082015260600190565b90815260200190565b6000838252604060208301526128ed6040830184612b72565b9182521515602082015260400190565b918252602082015260400190565b600085825284602083015283604083015260806060830152612e706080830184612b72565b9695505050505050565b948552602085019390935260408401919091526060830152608082015260a00190565b6001600160a01b0381168114610e9857600080fd5b8015158114610e9857600080fdfe4f776e61626c653a206e6577206f776e657220697320746865207a65726f2061646472657373536166654d6174683a206d756c7469706c69636174696f6e206f766572666c6f774f776e61626c653a2063616c6c6572206973206e6f7420746865206f776e65725361666545524332303a204552433230206f7065726174696f6e20646964206e6f742073756363656564a2646970667358221220e2ce41778f6a33ef51ee1b7eb8d1a1c2aaff58d2624fa9a77d69bee6ad46853e64736f6c63430007060033",
  "linkReferences": {},
  "deployedLinkReferences": {}
}